{
  "contractName": "BPRO",
  "abi": [
    {
      "inputs": [
        {
          "internalType": "address",
          "name": "minter_",
          "type": "address"
        }
      ],
      "payable": false,
      "stateMutability": "nonpayable",
      "type": "constructor"
    },
    {
      "anonymous": false,
      "inputs": [
        {
          "indexed": true,
          "internalType": "address",
          "name": "owner",
          "type": "address"
        },
        {
          "indexed": true,
          "internalType": "address",
          "name": "spender",
          "type": "address"
        },
        {
          "indexed": false,
          "internalType": "uint256",
          "name": "amount",
          "type": "uint256"
        }
      ],
      "name": "Approval",
      "type": "event"
    },
    {
      "anonymous": false,
      "inputs": [
        {
          "indexed": true,
          "internalType": "address",
          "name": "delegator",
          "type": "address"
        },
        {
          "indexed": true,
          "internalType": "address",
          "name": "fromDelegate",
          "type": "address"
        },
        {
          "indexed": true,
          "internalType": "address",
          "name": "toDelegate",
          "type": "address"
        }
      ],
      "name": "DelegateChanged",
      "type": "event"
    },
    {
      "anonymous": false,
      "inputs": [
        {
          "indexed": true,
          "internalType": "address",
          "name": "delegate",
          "type": "address"
        },
        {
          "indexed": false,
          "internalType": "uint256",
          "name": "previousBalance",
          "type": "uint256"
        },
        {
          "indexed": false,
          "internalType": "uint256",
          "name": "newBalance",
          "type": "uint256"
        }
      ],
      "name": "DelegateVotesChanged",
      "type": "event"
    },
    {
      "anonymous": false,
      "inputs": [
        {
          "indexed": false,
          "internalType": "address",
          "name": "minter",
          "type": "address"
        },
        {
          "indexed": false,
          "internalType": "address",
          "name": "newMinter",
          "type": "address"
        }
      ],
      "name": "MinterChanged",
      "type": "event"
    },
    {
      "anonymous": false,
      "inputs": [
        {
          "indexed": true,
          "internalType": "address",
          "name": "from",
          "type": "address"
        },
        {
          "indexed": true,
          "internalType": "address",
          "name": "to",
          "type": "address"
        },
        {
          "indexed": false,
          "internalType": "uint256",
          "name": "amount",
          "type": "uint256"
        }
      ],
      "name": "Transfer",
      "type": "event"
    },
    {
      "constant": true,
      "inputs": [],
      "name": "DELEGATION_TYPEHASH",
      "outputs": [
        {
          "internalType": "bytes32",
          "name": "",
          "type": "bytes32"
        }
      ],
      "payable": false,
      "stateMutability": "view",
      "type": "function"
    },
    {
      "constant": true,
      "inputs": [],
      "name": "DOMAIN_TYPEHASH",
      "outputs": [
        {
          "internalType": "bytes32",
          "name": "",
          "type": "bytes32"
        }
      ],
      "payable": false,
      "stateMutability": "view",
      "type": "function"
    },
    {
      "constant": true,
      "inputs": [],
      "name": "PERMIT_TYPEHASH",
      "outputs": [
        {
          "internalType": "bytes32",
          "name": "",
          "type": "bytes32"
        }
      ],
      "payable": false,
      "stateMutability": "view",
      "type": "function"
    },
    {
      "constant": true,
      "inputs": [
        {
          "internalType": "address",
          "name": "",
          "type": "address"
        },
        {
          "internalType": "uint32",
          "name": "",
          "type": "uint32"
        }
      ],
      "name": "checkpoints",
      "outputs": [
        {
          "internalType": "uint32",
          "name": "fromBlock",
          "type": "uint32"
        },
        {
          "internalType": "uint96",
          "name": "votes",
          "type": "uint96"
        }
      ],
      "payable": false,
      "stateMutability": "view",
      "type": "function"
    },
    {
      "constant": true,
      "inputs": [],
      "name": "decimals",
      "outputs": [
        {
          "internalType": "uint8",
          "name": "",
          "type": "uint8"
        }
      ],
      "payable": false,
      "stateMutability": "view",
      "type": "function"
    },
    {
      "constant": true,
      "inputs": [
        {
          "internalType": "address",
          "name": "",
          "type": "address"
        }
      ],
      "name": "delegates",
      "outputs": [
        {
          "internalType": "address",
          "name": "",
          "type": "address"
        }
      ],
      "payable": false,
      "stateMutability": "view",
      "type": "function"
    },
    {
      "constant": true,
      "inputs": [],
      "name": "minter",
      "outputs": [
        {
          "internalType": "address",
          "name": "",
          "type": "address"
        }
      ],
      "payable": false,
      "stateMutability": "view",
      "type": "function"
    },
    {
      "constant": true,
      "inputs": [],
      "name": "name",
      "outputs": [
        {
          "internalType": "string",
          "name": "",
          "type": "string"
        }
      ],
      "payable": false,
      "stateMutability": "view",
      "type": "function"
    },
    {
      "constant": true,
      "inputs": [
        {
          "internalType": "address",
          "name": "",
          "type": "address"
        }
      ],
      "name": "nonces",
      "outputs": [
        {
          "internalType": "uint256",
          "name": "",
          "type": "uint256"
        }
      ],
      "payable": false,
      "stateMutability": "view",
      "type": "function"
    },
    {
      "constant": true,
      "inputs": [
        {
          "internalType": "address",
          "name": "",
          "type": "address"
        }
      ],
      "name": "numCheckpoints",
      "outputs": [
        {
          "internalType": "uint32",
          "name": "",
          "type": "uint32"
        }
      ],
      "payable": false,
      "stateMutability": "view",
      "type": "function"
    },
    {
      "constant": true,
      "inputs": [],
      "name": "symbol",
      "outputs": [
        {
          "internalType": "string",
          "name": "",
          "type": "string"
        }
      ],
      "payable": false,
      "stateMutability": "view",
      "type": "function"
    },
    {
      "constant": true,
      "inputs": [],
      "name": "totalSupply",
      "outputs": [
        {
          "internalType": "uint256",
          "name": "",
          "type": "uint256"
        }
      ],
      "payable": false,
      "stateMutability": "view",
      "type": "function"
    },
    {
      "constant": false,
      "inputs": [
        {
          "internalType": "address",
          "name": "minter_",
          "type": "address"
        }
      ],
      "name": "setMinter",
      "outputs": [],
      "payable": false,
      "stateMutability": "nonpayable",
      "type": "function"
    },
    {
      "constant": false,
      "inputs": [
        {
          "internalType": "address",
          "name": "dst",
          "type": "address"
        },
        {
          "internalType": "uint256",
          "name": "rawAmount",
          "type": "uint256"
        }
      ],
      "name": "mint",
      "outputs": [],
      "payable": false,
      "stateMutability": "nonpayable",
      "type": "function"
    },
    {
      "constant": true,
      "inputs": [
        {
          "internalType": "address",
          "name": "account",
          "type": "address"
        },
        {
          "internalType": "address",
          "name": "spender",
          "type": "address"
        }
      ],
      "name": "allowance",
      "outputs": [
        {
          "internalType": "uint256",
          "name": "",
          "type": "uint256"
        }
      ],
      "payable": false,
      "stateMutability": "view",
      "type": "function"
    },
    {
      "constant": false,
      "inputs": [
        {
          "internalType": "address",
          "name": "spender",
          "type": "address"
        },
        {
          "internalType": "uint256",
          "name": "rawAmount",
          "type": "uint256"
        }
      ],
      "name": "approve",
      "outputs": [
        {
          "internalType": "bool",
          "name": "",
          "type": "bool"
        }
      ],
      "payable": false,
      "stateMutability": "nonpayable",
      "type": "function"
    },
    {
      "constant": false,
      "inputs": [
        {
          "internalType": "address",
          "name": "owner",
          "type": "address"
        },
        {
          "internalType": "address",
          "name": "spender",
          "type": "address"
        },
        {
          "internalType": "uint256",
          "name": "rawAmount",
          "type": "uint256"
        },
        {
          "internalType": "uint256",
          "name": "deadline",
          "type": "uint256"
        },
        {
          "internalType": "uint8",
          "name": "v",
          "type": "uint8"
        },
        {
          "internalType": "bytes32",
          "name": "r",
          "type": "bytes32"
        },
        {
          "internalType": "bytes32",
          "name": "s",
          "type": "bytes32"
        }
      ],
      "name": "permit",
      "outputs": [],
      "payable": false,
      "stateMutability": "nonpayable",
      "type": "function"
    },
    {
      "constant": true,
      "inputs": [
        {
          "internalType": "address",
          "name": "account",
          "type": "address"
        }
      ],
      "name": "balanceOf",
      "outputs": [
        {
          "internalType": "uint256",
          "name": "",
          "type": "uint256"
        }
      ],
      "payable": false,
      "stateMutability": "view",
      "type": "function"
    },
    {
      "constant": false,
      "inputs": [
        {
          "internalType": "address",
          "name": "dst",
          "type": "address"
        },
        {
          "internalType": "uint256",
          "name": "rawAmount",
          "type": "uint256"
        }
      ],
      "name": "transfer",
      "outputs": [
        {
          "internalType": "bool",
          "name": "",
          "type": "bool"
        }
      ],
      "payable": false,
      "stateMutability": "nonpayable",
      "type": "function"
    },
    {
      "constant": false,
      "inputs": [
        {
          "internalType": "address",
          "name": "src",
          "type": "address"
        },
        {
          "internalType": "address",
          "name": "dst",
          "type": "address"
        },
        {
          "internalType": "uint256",
          "name": "rawAmount",
          "type": "uint256"
        }
      ],
      "name": "transferFrom",
      "outputs": [
        {
          "internalType": "bool",
          "name": "",
          "type": "bool"
        }
      ],
      "payable": false,
      "stateMutability": "nonpayable",
      "type": "function"
    },
    {
      "constant": false,
      "inputs": [
        {
          "internalType": "address",
          "name": "delegatee",
          "type": "address"
        }
      ],
      "name": "delegate",
      "outputs": [],
      "payable": false,
      "stateMutability": "nonpayable",
      "type": "function"
    },
    {
      "constant": false,
      "inputs": [
        {
          "internalType": "address",
          "name": "delegatee",
          "type": "address"
        },
        {
          "internalType": "uint256",
          "name": "nonce",
          "type": "uint256"
        },
        {
          "internalType": "uint256",
          "name": "expiry",
          "type": "uint256"
        },
        {
          "internalType": "uint8",
          "name": "v",
          "type": "uint8"
        },
        {
          "internalType": "bytes32",
          "name": "r",
          "type": "bytes32"
        },
        {
          "internalType": "bytes32",
          "name": "s",
          "type": "bytes32"
        }
      ],
      "name": "delegateBySig",
      "outputs": [],
      "payable": false,
      "stateMutability": "nonpayable",
      "type": "function"
    },
    {
      "constant": true,
      "inputs": [
        {
          "internalType": "address",
          "name": "account",
          "type": "address"
        }
      ],
      "name": "getCurrentVotes",
      "outputs": [
        {
          "internalType": "uint96",
          "name": "",
          "type": "uint96"
        }
      ],
      "payable": false,
      "stateMutability": "view",
      "type": "function"
    },
    {
      "constant": true,
      "inputs": [
        {
          "internalType": "address",
          "name": "account",
          "type": "address"
        },
        {
          "internalType": "uint256",
          "name": "blockNumber",
          "type": "uint256"
        }
      ],
      "name": "getPriorVotes",
      "outputs": [
        {
          "internalType": "uint96",
          "name": "",
          "type": "uint96"
        }
      ],
      "payable": false,
      "stateMutability": "view",
      "type": "function"
    }
  ],
  "bytecode": "0x6080604052600080553480156200001557600080fd5b5060405162002646380380620026468339810160408190526200003891620000b1565b600180546001600160a01b0319166001600160a01b0383811691909117918290556040517f3b0007eb941cf645526cbb3a4fdaecda9d28ce4843167d9263b536a1f1edc0f6926200008f92600092911690620000f6565b60405180910390a1506200015c565b8051620000ab8162000142565b92915050565b600060208284031215620000c457600080fd5b6000620000d284846200009e565b949350505050565b620000e5816200012e565b82525050565b620000e5816200011c565b60408101620001068285620000da565b620001156020830184620000eb565b9392505050565b60006001600160a01b038216620000ab565b6000620000ab826000620000ab826200011c565b6200014d816200011c565b81146200015957600080fd5b50565b6124da806200016c6000396000f3fe608060405234801561001057600080fd5b50600436106101585760003560e01c806370a08231116100c3578063c3cda5201161007c578063c3cda520146102cc578063d505accf146102df578063dd62ed3e146102f2578063e7a324dc14610305578063f1127ed81461030d578063fca3b5aa1461032e57610158565b806370a0823114610258578063782d6fe11461026b5780637ecebe001461028b57806395d89b411461029e578063a9059cbb146102a6578063b4b5ea57146102b957610158565b806330adf81f1161011557806330adf81f146101e0578063313ce567146101e857806340c10f19146101fd578063587cde1e146102125780635c19a95c146102255780636fcfff451461023857610158565b806306fdde031461015d578063075461721461017b578063095ea7b31461019057806318160ddd146101b057806320606b70146101c557806323b872dd146101cd575b600080fd5b610165610341565b6040516101729190612089565b60405180910390f35b610183610367565b6040516101729190611f5c565b6101a361019e36600461187e565b610376565b6040516101729190611f85565b6101b8610435565b6040516101729190611f93565b6101b861043b565b6101a36101db366004611795565b610452565b6101b861059b565b6101f06105a7565b6040516101729190612193565b61021061020b36600461187e565b6105ac565b005b610183610220366004611735565b61074f565b610210610233366004611735565b61076a565b61024b610246366004611735565b610777565b604051610172919061216a565b6101b8610266366004611735565b61078f565b61027e61027936600461187e565b6107b3565b60405161017291906121af565b6101b8610299366004611735565b6109c1565b6101656109d3565b6101a36102b436600461187e565b6109f3565b61027e6102c7366004611735565b610a2f565b6102106102da3660046118ae565b610a9f565b6102106102ed3660046117e2565b610c8b565b6101b861030036600461175b565b610f79565b6101b8610fad565b61032061031b366004611935565b610fb9565b604051610172929190612178565b61021061033c366004611735565b610fee565b6040518060400160405280600a815260200169108b941c9bdd1bd8dbdb60b21b81525081565b6001546001600160a01b031681565b60008060001983141561038c57506000196103b1565b6103ae836040518060600160405280602581526020016122bd60259139611081565b90505b3360008181526002602090815260408083206001600160a01b03891680855292529182902080546001600160601b0319166001600160601b03861617905590519091907f8c5be1e5ebec7d5bd14f71427d1e84f3dd0314c0f7b2291e5b200ac8c7c3b925906104219085906121a1565b60405180910390a360019150505b92915050565b60005481565b60405161044790611f46565b604051809103902081565b6001600160a01b03831660009081526002602090815260408083203380855290835281842054825160608101909352602580845291936001600160601b039091169285926104aa92889291906122bd90830139611081565b9050866001600160a01b0316836001600160a01b0316141580156104d757506001600160601b0382811614155b1561058157600061050183836040518060600160405280603d8152602001612404603d91396110b0565b6001600160a01b038981166000818152600260209081526040808320948a16808452949091529081902080546001600160601b0319166001600160601b0386161790555192935090917f8c5be1e5ebec7d5bd14f71427d1e84f3dd0314c0f7b2291e5b200ac8c7c3b925906105779085906121a1565b60405180910390a3505b61058c8787836110ef565b600193505050505b9392505050565b60405161044790611f3b565b601281565b6001546001600160a01b031633146105df5760405162461bcd60e51b81526004016105d6906120aa565b60405180910390fd5b6001600160a01b0382166106055760405162461bcd60e51b81526004016105d69061215a565b60006106298260405180606001604052806022815260200161230660229139611081565b9050610661610643600054836001600160601b0316611295565b60405180606001604052806027815260200161244160279139611081565b6001600160601b0390811660009081556001600160a01b0385168152600360209081526040918290205482516060810190935260258084526106b394919091169285929091906123a9908301396112ba565b6001600160a01b03841660008181526003602052604080822080546001600160601b0319166001600160601b03959095169490941790935591519091907fddf252ad1be2c89b69c2b068fc378daa952ba7f163c4a11628f55a4df523b3ef9061071d9085906121a1565b60405180910390a36001600160a01b0380841660009081526004602052604081205461074a9216836112f6565b505050565b6004602052600090815260409020546001600160a01b031681565b6107743382611488565b50565b60066020526000908152604090205463ffffffff1681565b6001600160a01b03166000908152600360205260409020546001600160601b031690565b60004382106107d45760405162461bcd60e51b81526004016105d69061214a565b6001600160a01b03831660009081526006602052604090205463ffffffff168061080257600091505061042f565b6001600160a01b038416600090815260056020908152604080832063ffffffff60001986018116855292529091205416831061087e576001600160a01b03841660009081526005602090815260408083206000199490940163ffffffff1683529290522054600160201b90046001600160601b0316905061042f565b6001600160a01b038416600090815260056020908152604080832083805290915290205463ffffffff168310156108b957600091505061042f565b600060001982015b8163ffffffff168163ffffffff16111561097c57600282820363ffffffff160481036108eb6116f2565b506001600160a01b038716600090815260056020908152604080832063ffffffff858116855290835292819020815180830190925254928316808252600160201b9093046001600160601b031691810191909152908714156109575760200151945061042f9350505050565b805163ffffffff1687111561096e57819350610975565b6001820392505b50506108c1565b506001600160a01b038516600090815260056020908152604080832063ffffffff909416835292905220546001600160601b03600160201b9091041691505092915050565b60076020526000908152604090205481565b604051806040016040528060048152602001634250524f60e01b81525081565b600080610a188360405180606001604052806026815260200161232860269139611081565b9050610a253385836110ef565b5060019392505050565b6001600160a01b03811660009081526006602052604081205463ffffffff1680610a5a576000610594565b6001600160a01b0383166000908152600560209081526040808320600019850163ffffffff168452909152902054600160201b90046001600160601b03169392505050565b6000604051610aad90611f46565b60408051918290038220828201909152600a825269108b941c9bdd1bd8dbdb60b21b6020909201919091527f3ef1f0b385c411132d2461aa0d1b92812901885c0f181fa0de0a633085e6f41e610b01611512565b30604051602001610b159493929190612039565b6040516020818303038152906040528051906020012090506000604051610b3b90611f51565b604051908190038120610b56918a908a908a90602001611ffb565b60405160208183030381529060405280519060200120905060008282604051602001610b83929190611f0a565b604051602081830303815290604052805190602001209050600060018288888860405160008152602001604052604051610bc0949392919061206e565b6020604051602081039080840390855afa158015610be2573d6000803e3d6000fd5b5050604051601f1901519150506001600160a01b038116610c155760405162461bcd60e51b81526004016105d6906120ea565b6001600160a01b03811660009081526007602052604090208054600181019091558914610c545760405162461bcd60e51b81526004016105d69061212a565b87421115610c745760405162461bcd60e51b81526004016105d69061213a565b610c7e818b611488565b505050505b505050505050565b6000600019861415610ca05750600019610cc5565b610cc2866040518060600160405280602481526020016122e260249139611081565b90505b6000604051610cd390611f46565b60408051918290038220828201909152600a825269108b941c9bdd1bd8dbdb60b21b6020909201919091527f3ef1f0b385c411132d2461aa0d1b92812901885c0f181fa0de0a633085e6f41e610d27611512565b30604051602001610d3b9493929190612039565b6040516020818303038152906040528051906020012090506000604051610d6190611f3b565b604080519182900382206001600160a01b038d16600090815260076020908152929020805460018101909155610da39391928e928e928e9290918e9101611fa1565b60405160208183030381529060405280519060200120905060008282604051602001610dd0929190611f0a565b604051602081830303815290604052805190602001209050600060018289898960405160008152602001604052604051610e0d949392919061206e565b6020604051602081039080840390855afa158015610e2f573d6000803e3d6000fd5b5050604051601f1901519150506001600160a01b038116610e625760405162461bcd60e51b81526004016105d69061211a565b8b6001600160a01b0316816001600160a01b031614610e935760405162461bcd60e51b81526004016105d6906120da565b88421115610eb35760405162461bcd60e51b81526004016105d69061209a565b84600260008e6001600160a01b03166001600160a01b0316815260200190815260200160002060008d6001600160a01b03166001600160a01b0316815260200190815260200160002060006101000a8154816001600160601b0302191690836001600160601b031602179055508a6001600160a01b03168c6001600160a01b03167f8c5be1e5ebec7d5bd14f71427d1e84f3dd0314c0f7b2291e5b200ac8c7c3b92587604051610f6391906121a1565b60405180910390a3505050505050505050505050565b6001600160a01b0391821660009081526002602090815260408083209390941682529190915220546001600160601b031690565b60405161044790611f51565b600560209081526000928352604080842090915290825290205463ffffffff811690600160201b90046001600160601b031682565b6001546001600160a01b031633146110185760405162461bcd60e51b81526004016105d6906120ca565b6001546040517f3b0007eb941cf645526cbb3a4fdaecda9d28ce4843167d9263b536a1f1edc0f691611057916001600160a01b03909116908490611f6a565b60405180910390a1600180546001600160a01b0319166001600160a01b0392909216919091179055565b600081600160601b84106110a85760405162461bcd60e51b81526004016105d69190612089565b509192915050565b6000836001600160601b0316836001600160601b0316111582906110e75760405162461bcd60e51b81526004016105d69190612089565b505050900390565b6001600160a01b0383166111155760405162461bcd60e51b81526004016105d6906120fa565b6001600160a01b03821661113b5760405162461bcd60e51b81526004016105d69061210a565b6001600160a01b038316600090815260036020908152604091829020548251606081019093526036808452611186936001600160601b0390921692859291906123ce908301396110b0565b6001600160a01b03848116600090815260036020908152604080832080546001600160601b0319166001600160601b039687161790559286168252908290205482516060810190935260308084526111ee9491909116928592909190612468908301396112ba565b6001600160a01b038381166000818152600360205260409081902080546001600160601b0319166001600160601b0395909516949094179093559151908516907fddf252ad1be2c89b69c2b068fc378daa952ba7f163c4a11628f55a4df523b3ef9061125b9085906121a1565b60405180910390a36001600160a01b0380841660009081526004602052604080822054858416835291205461074a929182169116836112f6565b6000828201838110156105945760405162461bcd60e51b81526004016105d6906120ba565b6000838301826001600160601b0380871690831610156112ed5760405162461bcd60e51b81526004016105d69190612089565b50949350505050565b816001600160a01b0316836001600160a01b03161415801561132157506000816001600160601b0316115b1561074a576001600160a01b038316156113d9576001600160a01b03831660009081526006602052604081205463ffffffff1690816113615760006113a0565b6001600160a01b0385166000908152600560209081526040808320600019860163ffffffff168452909152902054600160201b90046001600160601b03165b905060006113c78285604051806060016040528060288152602001612295602891396110b0565b90506113d586848484611516565b5050505b6001600160a01b0382161561074a576001600160a01b03821660009081526006602052604081205463ffffffff169081611414576000611453565b6001600160a01b0384166000908152600560209081526040808320600019860163ffffffff168452909152902054600160201b90046001600160601b03165b9050600061147a8285604051806060016040528060278152602001612382602791396112ba565b9050610c8385848484611516565b6001600160a01b03808316600081815260046020818152604080842080546003845282862054949093528787166001600160a01b031984168117909155905191909516946001600160601b039092169391928592917f3134e8a2e6d97e929a7e54011ea5485d7d196dd5f0ba4d4ef95803e8e3fc257f9190a461150c8284836112f6565b50505050565b4690565b600061153a4360405180606001604052806034815260200161234e603491396116cb565b905060008463ffffffff1611801561158357506001600160a01b038516600090815260056020908152604080832063ffffffff6000198901811685529252909120548282169116145b156115e2576001600160a01b0385166000908152600560209081526040808320600019880163ffffffff168452909152902080546fffffffffffffffffffffffff000000001916600160201b6001600160601b03851602179055611681565b60408051808201825263ffffffff80841682526001600160601b0380861660208085019182526001600160a01b038b166000818152600583528781208c871682528352878120965187549451909516600160201b026fffffffffffffffffffffffff000000001995871663ffffffff19958616179590951694909417909555938252600690935292909220805460018801909316929091169190911790555b846001600160a01b03167fdec2bacdd2f05b59de34da9b523dff8be42e5e38e818c82fdb0bae774387a72484846040516116bc9291906121bd565b60405180910390a25050505050565b600081600160201b84106110a85760405162461bcd60e51b81526004016105d69190612089565b604080518082019091526000808252602082015290565b803561042f81612265565b803561042f81612279565b803561042f81612282565b803561042f8161228b565b60006020828403121561174757600080fd5b60006117538484611709565b949350505050565b6000806040838503121561176e57600080fd5b600061177a8585611709565b925050602061178b85828601611709565b9150509250929050565b6000806000606084860312156117aa57600080fd5b60006117b68686611709565b93505060206117c786828701611709565b92505060406117d886828701611714565b9150509250925092565b600080600080600080600060e0888a0312156117fd57600080fd5b60006118098a8a611709565b975050602061181a8a828b01611709565b965050604061182b8a828b01611714565b955050606061183c8a828b01611714565b945050608061184d8a828b0161172a565b93505060a061185e8a828b01611714565b92505060c061186f8a828b01611714565b91505092959891949750929550565b6000806040838503121561189157600080fd5b600061189d8585611709565b925050602061178b85828601611714565b60008060008060008060c087890312156118c757600080fd5b60006118d38989611709565b96505060206118e489828a01611714565b95505060406118f589828a01611714565b945050606061190689828a0161172a565b935050608061191789828a01611714565b92505060a061192889828a01611714565b9150509295509295509295565b6000806040838503121561194857600080fd5b60006119548585611709565b925050602061178b8582860161171f565b61196e816121ea565b82525050565b61196e816121f5565b61196e816121fa565b61196e611992826121fa565b6121fa565b60006119a2826121d8565b6119ac81856121dc565b93506119bc81856020860161222f565b6119c58161225b565b9093019392505050565b60006119dc601f836121dc565b7f4250524f3a3a7065726d69743a207369676e6174757265206578706972656400815260200192915050565b6000611a156024836121dc565b7f4250524f3a3a6d696e743a206f6e6c7920746865206d696e7465722063616e208152631b5a5b9d60e21b602082015260400192915050565b6000611a5b6002836121e5565b61190160f01b815260020192915050565b6000611a79601b836121dc565b7f536166654d6174683a206164646974696f6e206f766572666c6f770000000000815260200192915050565b6000611ab2603e836121dc565b7f4250524f3a3a7365744d696e7465723a206f6e6c7920746865206d696e74657281527f2063616e206368616e676520746865206d696e74657220616464726573730000602082015260400192915050565b6000611b11601a836121dc565b7f4250524f3a3a7065726d69743a20756e617574686f72697a6564000000000000815260200192915050565b6000611b4a6052836121e5565b7f5065726d69742861646472657373206f776e65722c616464726573732073706581527f6e6465722c75696e743235362076616c75652c75696e74323536206e6f6e63656020820152712c75696e7432353620646561646c696e652960701b604082015260520192915050565b6000611bc46026836121dc565b7f4250524f3a3a64656c656761746542795369673a20696e76616c6964207369678152656e617475726560d01b602082015260400192915050565b6000611c0c603c836121dc565b7f4250524f3a3a5f7472616e73666572546f6b656e733a2063616e6e6f7420747281527f616e736665722066726f6d20746865207a65726f206164647265737300000000602082015260400192915050565b6000611c6b603a836121dc565b7f4250524f3a3a5f7472616e73666572546f6b656e733a2063616e6e6f7420747281527f616e7366657220746f20746865207a65726f2061646472657373000000000000602082015260400192915050565b6000611cca6043836121e5565b7f454950373132446f6d61696e28737472696e67206e616d652c75696e7432353681527f20636861696e49642c6164647265737320766572696679696e67436f6e74726160208201526263742960e81b604082015260430192915050565b6000611d35601f836121dc565b7f4250524f3a3a7065726d69743a20696e76616c6964207369676e617475726500815260200192915050565b6000611d6e6022836121dc565b7f4250524f3a3a64656c656761746542795369673a20696e76616c6964206e6f6e815261636560f01b602082015260400192915050565b6000611db26026836121dc565b7f4250524f3a3a64656c656761746542795369673a207369676e617475726520658152651e1c1a5c995960d21b602082015260400192915050565b6000611dfa6027836121dc565b7f4250524f3a3a6765745072696f72566f7465733a206e6f742079657420646574815266195c9b5a5b995960ca1b602082015260400192915050565b6000611e43603a836121e5565b7f44656c65676174696f6e28616464726573732064656c6567617465652c75696e81527f74323536206e6f6e63652c75696e7432353620657870697279290000000000006020820152603a0192915050565b6000611ea2602f836121dc565b7f4250524f3a3a6d696e743a2063616e6e6f74207472616e7366657220746f207481526e6865207a65726f206164647265737360881b602082015260400192915050565b61196e81612209565b61196e81612212565b61196e81612224565b61196e81612218565b6000611f1582611a4e565b9150611f218285611986565b602082019150611f318284611986565b5060200192915050565b600061042f82611b3d565b600061042f82611cbd565b600061042f82611e36565b6020810161042f8284611965565b60408101611f788285611965565b6105946020830184611965565b6020810161042f8284611974565b6020810161042f828461197d565b60c08101611faf828961197d565b611fbc6020830188611965565b611fc96040830187611965565b611fd6606083018661197d565b611fe3608083018561197d565b611ff060a083018461197d565b979650505050505050565b60808101612009828761197d565b6120166020830186611965565b612023604083018561197d565b612030606083018461197d565b95945050505050565b60808101612047828761197d565b612054602083018661197d565b612061604083018561197d565b6120306060830184611965565b6080810161207c828761197d565b6120166020830186611eef565b602080825281016105948184611997565b6020808252810161042f816119cf565b6020808252810161042f81611a08565b6020808252810161042f81611a6c565b6020808252810161042f81611aa5565b6020808252810161042f81611b04565b6020808252810161042f81611bb7565b6020808252810161042f81611bff565b6020808252810161042f81611c5e565b6020808252810161042f81611d28565b6020808252810161042f81611d61565b6020808252810161042f81611da5565b6020808252810161042f81611ded565b6020808252810161042f81611e95565b6020810161042f8284611ee6565b604081016121868285611ee6565b6105946020830184611f01565b6020810161042f8284611eef565b6020810161042f8284611ef8565b6020810161042f8284611f01565b604081016121cb8285611ef8565b6105946020830184611ef8565b5190565b90815260200190565b919050565b600061042f826121fd565b151590565b90565b6001600160a01b031690565b63ffffffff1690565b60ff1690565b6001600160601b031690565b600061042f82612218565b60005b8381101561224a578181015183820152602001612232565b8381111561150c5750506000910152565b601f01601f191690565b61226e816121ea565b811461077457600080fd5b61226e816121fa565b61226e81612209565b61226e8161221256fe4250524f3a3a5f6d6f7665566f7465733a20766f746520616d6f756e7420756e646572666c6f77734250524f3a3a617070726f76653a20616d6f756e74206578636565647320393620626974734250524f3a3a7065726d69743a20616d6f756e74206578636565647320393620626974734250524f3a3a6d696e743a20616d6f756e74206578636565647320393620626974734250524f3a3a7472616e736665723a20616d6f756e74206578636565647320393620626974734250524f3a3a5f7772697465436865636b706f696e743a20626c6f636b206e756d626572206578636565647320333220626974734250524f3a3a5f6d6f7665566f7465733a20766f746520616d6f756e74206f766572666c6f77734250524f3a3a6d696e743a207472616e7366657220616d6f756e74206f766572666c6f77734250524f3a3a5f7472616e73666572546f6b656e733a207472616e7366657220616d6f756e7420657863656564732062616c616e63654250524f3a3a7472616e7366657246726f6d3a207472616e7366657220616d6f756e742065786365656473207370656e64657220616c6c6f77616e63654250524f3a3a6d696e743a20746f74616c537570706c79206578636565647320393620626974734250524f3a3a5f7472616e73666572546f6b656e733a207472616e7366657220616d6f756e74206f766572666c6f7773a365627a7a72315820e2b4fb4616f5ebb2100f85ed41606aac9c220e80499471cd779e82d3d90bc33a6c6578706572696d656e74616cf564736f6c63430005100040",
  "source": "pragma solidity ^0.5.16;\npragma experimental ABIEncoderV2;\n\nimport \"./SafeMath.sol\";\n\ncontract BPRO {\n    /// @notice EIP-20 token name for this token\n    string public constant name = \"B.Protocol\";\n\n    /// @notice EIP-20 token symbol for this token\n    string public constant symbol = \"BPRO\";\n\n    /// @notice EIP-20 token decimals for this token\n    uint8 public constant decimals = 18;\n\n    /// @notice Total number of tokens in circulation\n    uint public totalSupply = 0;\n\n    /// @notice Address which may mint new tokens\n    address public minter;\n\n    /*\n    /// @notice The timestamp after which minting may occur\n    uint public mintingAllowedAfter;\n\n    /// @notice Minimum time between mints\n    uint32 public constant minimumTimeBetweenMints = 1 days * 365;\n\n    /// @notice Cap on the percentage of totalSupply that can be minted at each mint\n    uint8 public constant mintCap = 2; */\n\n    /// @notice Allowance amounts on behalf of others\n    mapping (address => mapping (address => uint96)) internal allowances;\n\n    /// @notice Official record of token balances for each account\n    mapping (address => uint96) internal balances;\n\n    /// @notice A record of each accounts delegate\n    mapping (address => address) public delegates;\n\n    /// @notice A checkpoint for marking number of votes from a given block\n    struct Checkpoint {\n        uint32 fromBlock;\n        uint96 votes;\n    }\n\n    /// @notice A record of votes checkpoints for each account, by index\n    mapping (address => mapping (uint32 => Checkpoint)) public checkpoints;\n\n    /// @notice The number of checkpoints for each account\n    mapping (address => uint32) public numCheckpoints;\n\n    /// @notice The EIP-712 typehash for the contract's domain\n    bytes32 public constant DOMAIN_TYPEHASH = keccak256(\"EIP712Domain(string name,uint256 chainId,address verifyingContract)\");\n\n    /// @notice The EIP-712 typehash for the delegation struct used by the contract\n    bytes32 public constant DELEGATION_TYPEHASH = keccak256(\"Delegation(address delegatee,uint256 nonce,uint256 expiry)\");\n\n    /// @notice The EIP-712 typehash for the permit struct used by the contract\n    bytes32 public constant PERMIT_TYPEHASH = keccak256(\"Permit(address owner,address spender,uint256 value,uint256 nonce,uint256 deadline)\");\n\n    /// @notice A record of states for signing / validating signatures\n    mapping (address => uint) public nonces;\n\n    /// @notice An event thats emitted when the minter address is changed\n    event MinterChanged(address minter, address newMinter);\n\n    /// @notice An event thats emitted when an account changes its delegate\n    event DelegateChanged(address indexed delegator, address indexed fromDelegate, address indexed toDelegate);\n\n    /// @notice An event thats emitted when a delegate account's vote balance changes\n    event DelegateVotesChanged(address indexed delegate, uint previousBalance, uint newBalance);\n\n    /// @notice The standard EIP-20 transfer event\n    event Transfer(address indexed from, address indexed to, uint256 amount);\n\n    /// @notice The standard EIP-20 approval event\n    event Approval(address indexed owner, address indexed spender, uint256 amount);\n\n    /**\n     * @notice Construct a new Uni token\n     * @param minter_ The account with minting ability\n     */\n    constructor(/*address account,*/ address minter_/*, uint mintingAllowedAfter_*/) public {\n        //require(mintingAllowedAfter_ >= block.timestamp, \"BPRO::constructor: minting can only begin after deployment\");\n\n        //balances[account] = uint96(totalSupply);\n        //emit Transfer(address(0), account, totalSupply);\n        minter = minter_;\n        emit MinterChanged(address(0), minter);\n        //mintingAllowedAfter = mintingAllowedAfter_;\n    }\n\n    /**\n     * @notice Change the minter address\n     * @param minter_ The address of the new minter\n     */\n    function setMinter(address minter_) external {\n        require(msg.sender == minter, \"BPRO::setMinter: only the minter can change the minter address\");\n        emit MinterChanged(minter, minter_);\n        minter = minter_;\n    }\n\n    /**\n     * @notice Mint new tokens\n     * @param dst The address of the destination account\n     * @param rawAmount The number of tokens to be minted\n     */\n    function mint(address dst, uint rawAmount) external {\n        require(msg.sender == minter, \"BPRO::mint: only the minter can mint\");\n        //require(block.timestamp >= mintingAllowedAfter, \"Uni::mint: minting not allowed yet\");\n        require(dst != address(0), \"BPRO::mint: cannot transfer to the zero address\");\n\n        // record the mint\n        //mintingAllowedAfter = SafeMath.add(block.timestamp, minimumTimeBetweenMints);\n\n        // mint the amount\n        uint96 amount = safe96(rawAmount, \"BPRO::mint: amount exceeds 96 bits\");\n        //require(amount <= SafeMath.div(SafeMath.mul(totalSupply, mintCap), 100), \"Uni::mint: exceeded mint cap\");\n        totalSupply = safe96(SafeMath.add(totalSupply, amount), \"BPRO::mint: totalSupply exceeds 96 bits\");\n\n        // transfer the amount to the recipient\n        balances[dst] = add96(balances[dst], amount, \"BPRO::mint: transfer amount overflows\");\n        emit Transfer(address(0), dst, amount);\n\n        // move delegates\n        _moveDelegates(address(0), delegates[dst], amount);\n    }\n\n    /**\n     * @notice Get the number of tokens `spender` is approved to spend on behalf of `account`\n     * @param account The address of the account holding the funds\n     * @param spender The address of the account spending the funds\n     * @return The number of tokens approved\n     */\n    function allowance(address account, address spender) external view returns (uint) {\n        return allowances[account][spender];\n    }\n\n    /**\n     * @notice Approve `spender` to transfer up to `amount` from `src`\n     * @dev This will overwrite the approval amount for `spender`\n     *  and is subject to issues noted [here](https://eips.ethereum.org/EIPS/eip-20#approve)\n     * @param spender The address of the account which may transfer tokens\n     * @param rawAmount The number of tokens that are approved (2^256-1 means infinite)\n     * @return Whether or not the approval succeeded\n     */\n    function approve(address spender, uint rawAmount) external returns (bool) {\n        uint96 amount;\n        if (rawAmount == uint(-1)) {\n            amount = uint96(-1);\n        } else {\n            amount = safe96(rawAmount, \"BPRO::approve: amount exceeds 96 bits\");\n        }\n\n        allowances[msg.sender][spender] = amount;\n\n        emit Approval(msg.sender, spender, amount);\n        return true;\n    }\n\n    /**\n     * @notice Triggers an approval from owner to spends\n     * @param owner The address to approve from\n     * @param spender The address to be approved\n     * @param rawAmount The number of tokens that are approved (2^256-1 means infinite)\n     * @param deadline The time at which to expire the signature\n     * @param v The recovery byte of the signature\n     * @param r Half of the ECDSA signature pair\n     * @param s Half of the ECDSA signature pair\n     */\n    function permit(address owner, address spender, uint rawAmount, uint deadline, uint8 v, bytes32 r, bytes32 s) external {\n        uint96 amount;\n        if (rawAmount == uint(-1)) {\n            amount = uint96(-1);\n        } else {\n            amount = safe96(rawAmount, \"BPRO::permit: amount exceeds 96 bits\");\n        }\n\n        bytes32 domainSeparator = keccak256(abi.encode(DOMAIN_TYPEHASH, keccak256(bytes(name)), getChainId(), address(this)));\n        bytes32 structHash = keccak256(abi.encode(PERMIT_TYPEHASH, owner, spender, rawAmount, nonces[owner]++, deadline));\n        bytes32 digest = keccak256(abi.encodePacked(\"\\x19\\x01\", domainSeparator, structHash));\n        address signatory = ecrecover(digest, v, r, s);\n        require(signatory != address(0), \"BPRO::permit: invalid signature\");\n        require(signatory == owner, \"BPRO::permit: unauthorized\");\n        require(now <= deadline, \"BPRO::permit: signature expired\");\n\n        allowances[owner][spender] = amount;\n\n        emit Approval(owner, spender, amount);\n    }\n\n    /**\n     * @notice Get the number of tokens held by the `account`\n     * @param account The address of the account to get the balance of\n     * @return The number of tokens held\n     */\n    function balanceOf(address account) external view returns (uint) {\n        return balances[account];\n    }\n\n    /**\n     * @notice Transfer `amount` tokens from `msg.sender` to `dst`\n     * @param dst The address of the destination account\n     * @param rawAmount The number of tokens to transfer\n     * @return Whether or not the transfer succeeded\n     */\n    function transfer(address dst, uint rawAmount) external returns (bool) {\n        uint96 amount = safe96(rawAmount, \"BPRO::transfer: amount exceeds 96 bits\");\n        _transferTokens(msg.sender, dst, amount);\n        return true;\n    }\n\n    /**\n     * @notice Transfer `amount` tokens from `src` to `dst`\n     * @param src The address of the source account\n     * @param dst The address of the destination account\n     * @param rawAmount The number of tokens to transfer\n     * @return Whether or not the transfer succeeded\n     */\n    function transferFrom(address src, address dst, uint rawAmount) external returns (bool) {\n        address spender = msg.sender;\n        uint96 spenderAllowance = allowances[src][spender];\n        uint96 amount = safe96(rawAmount, \"BPRO::approve: amount exceeds 96 bits\");\n\n        if (spender != src && spenderAllowance != uint96(-1)) {\n            uint96 newAllowance = sub96(spenderAllowance, amount, \"BPRO::transferFrom: transfer amount exceeds spender allowance\");\n            allowances[src][spender] = newAllowance;\n\n            emit Approval(src, spender, newAllowance);\n        }\n\n        _transferTokens(src, dst, amount);\n        return true;\n    }\n\n    /**\n     * @notice Delegate votes from `msg.sender` to `delegatee`\n     * @param delegatee The address to delegate votes to\n     */\n    function delegate(address delegatee) public {\n        return _delegate(msg.sender, delegatee);\n    }\n\n    /**\n     * @notice Delegates votes from signatory to `delegatee`\n     * @param delegatee The address to delegate votes to\n     * @param nonce The contract state required to match the signature\n     * @param expiry The time at which to expire the signature\n     * @param v The recovery byte of the signature\n     * @param r Half of the ECDSA signature pair\n     * @param s Half of the ECDSA signature pair\n     */\n    function delegateBySig(address delegatee, uint nonce, uint expiry, uint8 v, bytes32 r, bytes32 s) public {\n        bytes32 domainSeparator = keccak256(abi.encode(DOMAIN_TYPEHASH, keccak256(bytes(name)), getChainId(), address(this)));\n        bytes32 structHash = keccak256(abi.encode(DELEGATION_TYPEHASH, delegatee, nonce, expiry));\n        bytes32 digest = keccak256(abi.encodePacked(\"\\x19\\x01\", domainSeparator, structHash));\n        address signatory = ecrecover(digest, v, r, s);\n        require(signatory != address(0), \"BPRO::delegateBySig: invalid signature\");\n        require(nonce == nonces[signatory]++, \"BPRO::delegateBySig: invalid nonce\");\n        require(now <= expiry, \"BPRO::delegateBySig: signature expired\");\n        return _delegate(signatory, delegatee);\n    }\n\n    /**\n     * @notice Gets the current votes balance for `account`\n     * @param account The address to get votes balance\n     * @return The number of current votes for `account`\n     */\n    function getCurrentVotes(address account) external view returns (uint96) {\n        uint32 nCheckpoints = numCheckpoints[account];\n        return nCheckpoints > 0 ? checkpoints[account][nCheckpoints - 1].votes : 0;\n    }\n\n    /**\n     * @notice Determine the prior number of votes for an account as of a block number\n     * @dev Block number must be a finalized block or else this function will revert to prevent misinformation.\n     * @param account The address of the account to check\n     * @param blockNumber The block number to get the vote balance at\n     * @return The number of votes the account had as of the given block\n     */\n    function getPriorVotes(address account, uint blockNumber) public view returns (uint96) {\n        require(blockNumber < block.number, \"BPRO::getPriorVotes: not yet determined\");\n\n        uint32 nCheckpoints = numCheckpoints[account];\n        if (nCheckpoints == 0) {\n            return 0;\n        }\n\n        // First check most recent balance\n        if (checkpoints[account][nCheckpoints - 1].fromBlock <= blockNumber) {\n            return checkpoints[account][nCheckpoints - 1].votes;\n        }\n\n        // Next check implicit zero balance\n        if (checkpoints[account][0].fromBlock > blockNumber) {\n            return 0;\n        }\n\n        uint32 lower = 0;\n        uint32 upper = nCheckpoints - 1;\n        while (upper > lower) {\n            uint32 center = upper - (upper - lower) / 2; // ceil, avoiding overflow\n            Checkpoint memory cp = checkpoints[account][center];\n            if (cp.fromBlock == blockNumber) {\n                return cp.votes;\n            } else if (cp.fromBlock < blockNumber) {\n                lower = center;\n            } else {\n                upper = center - 1;\n            }\n        }\n        return checkpoints[account][lower].votes;\n    }\n\n    function _delegate(address delegator, address delegatee) internal {\n        address currentDelegate = delegates[delegator];\n        uint96 delegatorBalance = balances[delegator];\n        delegates[delegator] = delegatee;\n\n        emit DelegateChanged(delegator, currentDelegate, delegatee);\n\n        _moveDelegates(currentDelegate, delegatee, delegatorBalance);\n    }\n\n    function _transferTokens(address src, address dst, uint96 amount) internal {\n        require(src != address(0), \"BPRO::_transferTokens: cannot transfer from the zero address\");\n        require(dst != address(0), \"BPRO::_transferTokens: cannot transfer to the zero address\");\n\n        balances[src] = sub96(balances[src], amount, \"BPRO::_transferTokens: transfer amount exceeds balance\");\n        balances[dst] = add96(balances[dst], amount, \"BPRO::_transferTokens: transfer amount overflows\");\n        emit Transfer(src, dst, amount);\n\n        _moveDelegates(delegates[src], delegates[dst], amount);\n    }\n\n    function _moveDelegates(address srcRep, address dstRep, uint96 amount) internal {\n        if (srcRep != dstRep && amount > 0) {\n            if (srcRep != address(0)) {\n                uint32 srcRepNum = numCheckpoints[srcRep];\n                uint96 srcRepOld = srcRepNum > 0 ? checkpoints[srcRep][srcRepNum - 1].votes : 0;\n                uint96 srcRepNew = sub96(srcRepOld, amount, \"BPRO::_moveVotes: vote amount underflows\");\n                _writeCheckpoint(srcRep, srcRepNum, srcRepOld, srcRepNew);\n            }\n\n            if (dstRep != address(0)) {\n                uint32 dstRepNum = numCheckpoints[dstRep];\n                uint96 dstRepOld = dstRepNum > 0 ? checkpoints[dstRep][dstRepNum - 1].votes : 0;\n                uint96 dstRepNew = add96(dstRepOld, amount, \"BPRO::_moveVotes: vote amount overflows\");\n                _writeCheckpoint(dstRep, dstRepNum, dstRepOld, dstRepNew);\n            }\n        }\n    }\n\n    function _writeCheckpoint(address delegatee, uint32 nCheckpoints, uint96 oldVotes, uint96 newVotes) internal {\n      uint32 blockNumber = safe32(block.number, \"BPRO::_writeCheckpoint: block number exceeds 32 bits\");\n\n      if (nCheckpoints > 0 && checkpoints[delegatee][nCheckpoints - 1].fromBlock == blockNumber) {\n          checkpoints[delegatee][nCheckpoints - 1].votes = newVotes;\n      } else {\n          checkpoints[delegatee][nCheckpoints] = Checkpoint(blockNumber, newVotes);\n          numCheckpoints[delegatee] = nCheckpoints + 1;\n      }\n\n      emit DelegateVotesChanged(delegatee, oldVotes, newVotes);\n    }\n\n    function safe32(uint n, string memory errorMessage) internal pure returns (uint32) {\n        require(n < 2**32, errorMessage);\n        return uint32(n);\n    }\n\n    function safe96(uint n, string memory errorMessage) internal pure returns (uint96) {\n        require(n < 2**96, errorMessage);\n        return uint96(n);\n    }\n\n    function add96(uint96 a, uint96 b, string memory errorMessage) internal pure returns (uint96) {\n        uint96 c = a + b;\n        require(c >= a, errorMessage);\n        return c;\n    }\n\n    function sub96(uint96 a, uint96 b, string memory errorMessage) internal pure returns (uint96) {\n        require(b <= a, errorMessage);\n        return a - b;\n    }\n\n    function getChainId() internal pure returns (uint) {\n        uint256 chainId;\n        assembly { chainId := chainid() }\n        return chainId;\n    }\n}",
  "sourcePath": "/Users/afshanaman/Development/personal/blockchain/BPRO/contracts/BPRO.sol",
  "compiler": {
    "name": "solc",
    "version": "0.5.16+commit.9c3226ce.Emscripten.clang"
  },
  "schemaVersion": "3.3.4",
  "updatedAt": "2021-07-10T23:16:21.415Z",
  "devdoc": {
    "methods": {
      "allowance(address,address)": {
        "params": {
          "account": "The address of the account holding the funds",
          "spender": "The address of the account spending the funds"
        },
        "return": "The number of tokens approved"
      },
      "approve(address,uint256)": {
        "details": "This will overwrite the approval amount for `spender` and is subject to issues noted [here](https://eips.ethereum.org/EIPS/eip-20#approve)",
        "params": {
          "rawAmount": "The number of tokens that are approved (2^256-1 means infinite)",
          "spender": "The address of the account which may transfer tokens"
        },
        "return": "Whether or not the approval succeeded"
      },
      "balanceOf(address)": {
        "params": {
          "account": "The address of the account to get the balance of"
        },
        "return": "The number of tokens held"
      },
      "constructor": {
        "params": {
          "minter_": "The account with minting ability"
        }
      },
      "delegate(address)": {
        "params": {
          "delegatee": "The address to delegate votes to"
        }
      },
      "delegateBySig(address,uint256,uint256,uint8,bytes32,bytes32)": {
        "params": {
          "delegatee": "The address to delegate votes to",
          "expiry": "The time at which to expire the signature",
          "nonce": "The contract state required to match the signature",
          "r": "Half of the ECDSA signature pair",
          "s": "Half of the ECDSA signature pair",
          "v": "The recovery byte of the signature"
        }
      },
      "getCurrentVotes(address)": {
        "params": {
          "account": "The address to get votes balance"
        },
        "return": "The number of current votes for `account`"
      },
      "getPriorVotes(address,uint256)": {
        "details": "Block number must be a finalized block or else this function will revert to prevent misinformation.",
        "params": {
          "account": "The address of the account to check",
          "blockNumber": "The block number to get the vote balance at"
        },
        "return": "The number of votes the account had as of the given block"
      },
      "mint(address,uint256)": {
        "params": {
          "dst": "The address of the destination account",
          "rawAmount": "The number of tokens to be minted"
        }
      },
      "permit(address,address,uint256,uint256,uint8,bytes32,bytes32)": {
        "params": {
          "deadline": "The time at which to expire the signature",
          "owner": "The address to approve from",
          "r": "Half of the ECDSA signature pair",
          "rawAmount": "The number of tokens that are approved (2^256-1 means infinite)",
          "s": "Half of the ECDSA signature pair",
          "spender": "The address to be approved",
          "v": "The recovery byte of the signature"
        }
      },
      "setMinter(address)": {
        "params": {
          "minter_": "The address of the new minter"
        }
      },
      "transfer(address,uint256)": {
        "params": {
          "dst": "The address of the destination account",
          "rawAmount": "The number of tokens to transfer"
        },
        "return": "Whether or not the transfer succeeded"
      },
      "transferFrom(address,address,uint256)": {
        "params": {
          "dst": "The address of the destination account",
          "rawAmount": "The number of tokens to transfer",
          "src": "The address of the source account"
        },
        "return": "Whether or not the transfer succeeded"
      }
    }
  },
  "userdoc": {
    "methods": {
      "allowance(address,address)": {
        "notice": "Get the number of tokens `spender` is approved to spend on behalf of `account`"
      },
      "approve(address,uint256)": {
        "notice": "Approve `spender` to transfer up to `amount` from `src`"
      },
      "balanceOf(address)": {
        "notice": "Get the number of tokens held by the `account`"
      },
      "constructor": "Construct a new Uni token",
      "delegate(address)": {
        "notice": "Delegate votes from `msg.sender` to `delegatee`"
      },
      "delegateBySig(address,uint256,uint256,uint8,bytes32,bytes32)": {
        "notice": "Delegates votes from signatory to `delegatee`"
      },
      "getCurrentVotes(address)": {
        "notice": "Gets the current votes balance for `account`"
      },
      "getPriorVotes(address,uint256)": {
        "notice": "Determine the prior number of votes for an account as of a block number"
      },
      "mint(address,uint256)": {
        "notice": "Mint new tokens"
      },
      "permit(address,address,uint256,uint256,uint8,bytes32,bytes32)": {
        "notice": "Triggers an approval from owner to spends"
      },
      "setMinter(address)": {
        "notice": "Change the minter address"
      },
      "transfer(address,uint256)": {
        "notice": "Transfer `amount` tokens from `msg.sender` to `dst`"
      },
      "transferFrom(address,address,uint256)": {
        "notice": "Transfer `amount` tokens from `src` to `dst`"
      }
    }
  }
}