{
  "contractName": "Generic",
  "abi": [
    {
      "constant": true,
      "inputs": [],
      "name": "x",
      "outputs": [
        {
          "internalType": "uint256",
          "name": "",
          "type": "uint256"
        }
      ],
      "payable": false,
      "stateMutability": "view",
      "type": "function"
    },
    {
      "constant": false,
      "inputs": [],
      "name": "spin",
      "outputs": [],
      "payable": false,
      "stateMutability": "nonpayable",
      "type": "function"
    },
    {
      "constant": false,
      "inputs": [
        {
          "internalType": "address",
          "name": "newAddress",
          "type": "address"
        }
      ],
      "name": "propose",
      "outputs": [],
      "payable": false,
      "stateMutability": "nonpayable",
      "type": "function"
    },
    {
      "constant": false,
      "inputs": [
        {
          "internalType": "uint256",
          "name": "id",
          "type": "uint256"
        }
      ],
      "name": "vote",
      "outputs": [],
      "payable": false,
      "stateMutability": "nonpayable",
      "type": "function"
    },
    {
      "constant": false,
      "inputs": [
        {
          "internalType": "uint256",
          "name": "id",
          "type": "uint256"
        }
      ],
      "name": "queueProposal",
      "outputs": [],
      "payable": false,
      "stateMutability": "nonpayable",
      "type": "function"
    },
    {
      "constant": false,
      "inputs": [
        {
          "internalType": "uint256",
          "name": "id",
          "type": "uint256"
        }
      ],
      "name": "executeProposal",
      "outputs": [],
      "payable": false,
      "stateMutability": "nonpayable",
      "type": "function"
    },
    {
      "constant": true,
      "inputs": [],
      "name": "owner",
      "outputs": [
        {
          "internalType": "address",
          "name": "",
          "type": "address"
        }
      ],
      "payable": false,
      "stateMutability": "pure",
      "type": "function"
    },
    {
      "constant": true,
      "inputs": [],
      "name": "score",
      "outputs": [
        {
          "internalType": "address",
          "name": "",
          "type": "address"
        }
      ],
      "payable": false,
      "stateMutability": "pure",
      "type": "function"
    },
    {
      "constant": true,
      "inputs": [],
      "name": "pool",
      "outputs": [
        {
          "internalType": "address",
          "name": "",
          "type": "address"
        }
      ],
      "payable": false,
      "stateMutability": "pure",
      "type": "function"
    },
    {
      "constant": false,
      "inputs": [
        {
          "internalType": "address",
          "name": "target",
          "type": "address"
        },
        {
          "internalType": "uint256",
          "name": "value",
          "type": "uint256"
        },
        {
          "internalType": "bytes",
          "name": "data",
          "type": "bytes"
        }
      ],
      "name": "submitTransaction",
      "outputs": [],
      "payable": false,
      "stateMutability": "nonpayable",
      "type": "function"
    },
    {
      "constant": false,
      "inputs": [
        {
          "internalType": "uint256",
          "name": "id",
          "type": "uint256"
        }
      ],
      "name": "confirmTransaction",
      "outputs": [],
      "payable": false,
      "stateMutability": "nonpayable",
      "type": "function"
    },
    {
      "constant": false,
      "inputs": [
        {
          "internalType": "address",
          "name": "a",
          "type": "address"
        }
      ],
      "name": "setScore",
      "outputs": [],
      "payable": false,
      "stateMutability": "nonpayable",
      "type": "function"
    },
    {
      "constant": false,
      "inputs": [
        {
          "internalType": "address",
          "name": "a",
          "type": "address"
        }
      ],
      "name": "setPool",
      "outputs": [],
      "payable": false,
      "stateMutability": "nonpayable",
      "type": "function"
    },
    {
      "constant": false,
      "inputs": [
        {
          "internalType": "address",
          "name": "a",
          "type": "address"
        }
      ],
      "name": "doTransferAdmin",
      "outputs": [],
      "payable": false,
      "stateMutability": "nonpayable",
      "type": "function"
    },
    {
      "constant": true,
      "inputs": [],
      "name": "getGlobalScore",
      "outputs": [
        {
          "internalType": "uint256",
          "name": "",
          "type": "uint256"
        }
      ],
      "payable": false,
      "stateMutability": "view",
      "type": "function"
    },
    {
      "constant": true,
      "inputs": [
        {
          "internalType": "address",
          "name": "user",
          "type": "address"
        }
      ],
      "name": "getUserScore",
      "outputs": [
        {
          "internalType": "uint256",
          "name": "",
          "type": "uint256"
        }
      ],
      "payable": false,
      "stateMutability": "view",
      "type": "function"
    },
    {
      "constant": true,
      "inputs": [],
      "name": "avatarList",
      "outputs": [
        {
          "internalType": "address[]",
          "name": "",
          "type": "address[]"
        }
      ],
      "payable": false,
      "stateMutability": "view",
      "type": "function"
    },
    {
      "constant": true,
      "inputs": [
        {
          "internalType": "address",
          "name": "avatar",
          "type": "address"
        }
      ],
      "name": "ownerOf",
      "outputs": [
        {
          "internalType": "address",
          "name": "",
          "type": "address"
        }
      ],
      "payable": false,
      "stateMutability": "view",
      "type": "function"
    },
    {
      "constant": true,
      "inputs": [],
      "name": "cdpi",
      "outputs": [
        {
          "internalType": "uint256",
          "name": "",
          "type": "uint256"
        }
      ],
      "payable": false,
      "stateMutability": "view",
      "type": "function"
    },
    {
      "constant": true,
      "inputs": [
        {
          "internalType": "uint256",
          "name": "cdp",
          "type": "uint256"
        }
      ],
      "name": "owns",
      "outputs": [
        {
          "internalType": "address",
          "name": "",
          "type": "address"
        }
      ],
      "payable": false,
      "stateMutability": "view",
      "type": "function"
    },
    {
      "constant": false,
      "inputs": [
        {
          "internalType": "uint256",
          "name": "index",
          "type": "uint256"
        },
        {
          "internalType": "address",
          "name": "account",
          "type": "address"
        },
        {
          "internalType": "uint256",
          "name": "amount",
          "type": "uint256"
        },
        {
          "internalType": "bytes32[]",
          "name": "merkleProof",
          "type": "bytes32[]"
        }
      ],
      "name": "claim",
      "outputs": [],
      "payable": false,
      "stateMutability": "nonpayable",
      "type": "function"
    }
  ],
  "bytecode": "0x608060405234801561001057600080fd5b506104fa806100206000396000f3fe608060405234801561001057600080fd5b50600436106101375760003560e01c80638161b120116100b8578063b34e0c471161007c578063b34e0c4714610374578063b3d178f21461039a578063c01a8c84146103a2578063c6427474146103bf578063efedc669146101fa578063f0acd7d51461044457610137565b80638161b120146102e257806388dd6b96146102ff5780638da5cb5b146101fa57806394a14a34146103575780639f536edd146102bc57610137565b806316f0115b116100ff57806316f0115b146101fa57806329800cb6146102025780632e7ba6ef1461020a5780633029c385146102965780634437152a146102bc57610137565b80630121b93f1461013c578063012679511461015b5780630c55699c146101815780630d61b5191461019b57806314afd79e146101b8575b600080fd5b6101596004803603602081101561015257600080fd5b503561044c565b005b6101596004803603602081101561017157600080fd5b50356001600160a01b0316610454565b61018961045c565b60408051918252519081900360200190f35b610159600480360360208110156101b157600080fd5b5035610462565b6101de600480360360208110156101ce57600080fd5b50356001600160a01b031661046b565b604080516001600160a01b039092168252519081900360200190f35b6101de610471565b610189610476565b6101596004803603608081101561022057600080fd5b8135916001600160a01b03602082013516916040820135919081019060808101606082013564010000000081111561025757600080fd5b82018360208201111561026957600080fd5b8035906020019184602083028401116401000000008311171561028b57600080fd5b50909250905061047b565b610159600480360360208110156102ac57600080fd5b50356001600160a01b0316610488565b610159600480360360208110156102d257600080fd5b50356001600160a01b0316610490565b6101de600480360360208110156102f857600080fd5b503561046b565b610307610493565b60408051602080825283518183015283519192839290830191858101910280838360005b8381101561034357818101518382015260200161032b565b505050509050019250505060405180910390f35b6101596004803603602081101561036d57600080fd5b5035610498565b6101896004803603602081101561038a57600080fd5b50356001600160a01b03166104a0565b6101896104a6565b610159600480360360208110156103b857600080fd5b50356104ab565b610159600480360360608110156103d557600080fd5b6001600160a01b038235169160208101359181019060608101604082013564010000000081111561040557600080fd5b82018360208201111561041757600080fd5b8035906020019184600183028401116401000000008311171561043957600080fd5b5090925090506104b3565b6101596104be565b50600b600055565b506007600055565b60005481565b5061038f600055565b50600090565b600090565b600590565b505061039b600055505050565b50607b600055565b50565b606090565b506009600055565b50600690565b600890565b506063600055565b5050600b6000555050565b600560005556fea265627a7a7231582017487f5fc9300ab7c515fb6a40c61dfd2d1b02d16940ed0b405643591a8232c264736f6c63430005100032",
  "source": "// DO NOT USE IN PRODUCTION - FOR TESTING PURPOSES ONLY\npragma solidity ^0.5.16;\n\n\n// initially deployer owns it, and then it moves it to the DAO\ncontract Generic {\n    uint public x;\n    // compound jar connector = address 0xD24E557762589124D7cFeF90d870DF17C25bFf8a\n    function spin() external {\n        x = 5;\n    }\n\n    // compound migrate = address 0x762084f835aD6e3Ce98E7E0b744C5781FB4fB884\n    function propose(address newAddress) external {\n        x = 7;\n    }\n\n    function vote(uint id) external {\n        x = 11;\n    }\n\n    function queueProposal(uint id) external {\n        x= 9;\n    }\n\n    function executeProposal(uint id) external {\n        x= 911;\n    }\n\n    function owner() external pure returns(address) {\n\n    }\n\n    function score() external pure returns(address) {\n\n    }\n\n    function pool() external pure returns(address) {\n\n    }    \n\n    // msig\n    function submitTransaction(address target, uint value, bytes calldata data) external {\n        x = 11;\n    }\n\n    function confirmTransaction(uint id) external {\n        x = 99;\n    }\n\n    // admin\n    function setScore(address a) external {\n        x = x++;\n    }\n\n    function setPool(address a) external {\n        x = x++;\n    }    \n\n    // exec\n    function doTransferAdmin(address a) external {\n        x = 123;\n    }\n\n    // jar\n    function getGlobalScore() external view returns(uint) {\n        return 5;\n    }\n\n    function getUserScore(address user) external view returns(uint) {\n        return 6;\n    }\n\n    // registry\n    function avatarList() external view returns(address[] memory) {\n        //return [];\n    }\n\n    function ownerOf(address avatar) external view returns(address) {\n        return address(0x0);\n    }\n\n    // cdpi\n    function cdpi() external view returns(uint) {\n        return 8;\n    }\n\n    function owns(uint cdp) external view returns(address) {\n        return address(0);\n    }\n\n    // dsproxy\n    /*\n    function owner() external view returns(address) {\n        return address(0);\n    }*/\n\n    function claim(uint256 index, address account, uint256 amount, bytes32[] calldata merkleProof) external {\n        x = 923;\n    }\n}\n\ncontract Generic2 {\n    function vote(uint proposalId, uint cdp) external {\n\n    }\n\n    function getUserScore(bytes32 cdp) external view returns(uint) {\n        return 6;\n    }    \n}\n\n",
  "sourcePath": "/Users/afshanaman/Development/personal/blockchain/BPRO/contracts/Generic.sol",
  "compiler": {
    "name": "solc",
    "version": "0.5.16+commit.9c3226ce.Emscripten.clang"
  },
  "schemaVersion": "3.3.4",
  "updatedAt": "2021-07-10T23:16:21.429Z",
  "devdoc": {
    "methods": {}
  },
  "userdoc": {
    "methods": {}
  }
}