{
  "contractName": "Generic2",
  "abi": [
    {
      "constant": false,
      "inputs": [
        {
          "internalType": "uint256",
          "name": "proposalId",
          "type": "uint256"
        },
        {
          "internalType": "uint256",
          "name": "cdp",
          "type": "uint256"
        }
      ],
      "name": "vote",
      "outputs": [],
      "payable": false,
      "stateMutability": "nonpayable",
      "type": "function"
    },
    {
      "constant": true,
      "inputs": [
        {
          "internalType": "bytes32",
          "name": "cdp",
          "type": "bytes32"
        }
      ],
      "name": "getUserScore",
      "outputs": [
        {
          "internalType": "uint256",
          "name": "",
          "type": "uint256"
        }
      ],
      "payable": false,
      "stateMutability": "view",
      "type": "function"
    }
  ],
  "bytecode": "0x608060405234801561001057600080fd5b5060c48061001f6000396000f3fe6080604052348015600f57600080fd5b506004361060325760003560e01c806399cfffe3146037578063b384abef146063575b600080fd5b605160048036036020811015604b57600080fd5b50356085565b60408051918252519081900360200190f35b608360048036036040811015607757600080fd5b5080359060200135608b565b005b50600690565b505056fea265627a7a723158202eaf53490032c1d91c7f7e4060b789ad0d46659b96d6b661b5f20efc6915cd4764736f6c63430005100032",
  "source": "// DO NOT USE IN PRODUCTION - FOR TESTING PURPOSES ONLY\npragma solidity ^0.5.16;\n\n\n// initially deployer owns it, and then it moves it to the DAO\ncontract Generic {\n    uint public x;\n    // compound jar connector = address 0xD24E557762589124D7cFeF90d870DF17C25bFf8a\n    function spin() external {\n        x = 5;\n    }\n\n    // compound migrate = address 0x762084f835aD6e3Ce98E7E0b744C5781FB4fB884\n    function propose(address newAddress) external {\n        x = 7;\n    }\n\n    function vote(uint id) external {\n        x = 11;\n    }\n\n    function queueProposal(uint id) external {\n        x= 9;\n    }\n\n    function executeProposal(uint id) external {\n        x= 911;\n    }\n\n    function owner() external pure returns(address) {\n\n    }\n\n    function score() external pure returns(address) {\n\n    }\n\n    function pool() external pure returns(address) {\n\n    }    \n\n    // msig\n    function submitTransaction(address target, uint value, bytes calldata data) external {\n        x = 11;\n    }\n\n    function confirmTransaction(uint id) external {\n        x = 99;\n    }\n\n    // admin\n    function setScore(address a) external {\n        x = x++;\n    }\n\n    function setPool(address a) external {\n        x = x++;\n    }    \n\n    // exec\n    function doTransferAdmin(address a) external {\n        x = 123;\n    }\n\n    // jar\n    function getGlobalScore() external view returns(uint) {\n        return 5;\n    }\n\n    function getUserScore(address user) external view returns(uint) {\n        return 6;\n    }\n\n    // registry\n    function avatarList() external view returns(address[] memory) {\n        //return [];\n    }\n\n    function ownerOf(address avatar) external view returns(address) {\n        return address(0x0);\n    }\n\n    // cdpi\n    function cdpi() external view returns(uint) {\n        return 8;\n    }\n\n    function owns(uint cdp) external view returns(address) {\n        return address(0);\n    }\n\n    // dsproxy\n    /*\n    function owner() external view returns(address) {\n        return address(0);\n    }*/\n\n    function claim(uint256 index, address account, uint256 amount, bytes32[] calldata merkleProof) external {\n        x = 923;\n    }\n}\n\ncontract Generic2 {\n    function vote(uint proposalId, uint cdp) external {\n\n    }\n\n    function getUserScore(bytes32 cdp) external view returns(uint) {\n        return 6;\n    }    \n}\n\n",
  "sourcePath": "/Users/afshanaman/Development/personal/blockchain/BPRO/contracts/Generic.sol",
  "compiler": {
    "name": "solc",
    "version": "0.5.16+commit.9c3226ce.Emscripten.clang"
  },
  "schemaVersion": "3.3.4",
  "updatedAt": "2021-07-10T23:16:21.431Z",
  "devdoc": {
    "methods": {}
  },
  "userdoc": {
    "methods": {}
  }
}