{
  "contractName": "GovernorBravoDelegate",
  "abi": [
    {
      "anonymous": false,
      "inputs": [
        {
          "indexed": false,
          "internalType": "address",
          "name": "oldAdmin",
          "type": "address"
        },
        {
          "indexed": false,
          "internalType": "address",
          "name": "newAdmin",
          "type": "address"
        }
      ],
      "name": "NewAdmin",
      "type": "event"
    },
    {
      "anonymous": false,
      "inputs": [
        {
          "indexed": false,
          "internalType": "address",
          "name": "oldImplementation",
          "type": "address"
        },
        {
          "indexed": false,
          "internalType": "address",
          "name": "newImplementation",
          "type": "address"
        }
      ],
      "name": "NewImplementation",
      "type": "event"
    },
    {
      "anonymous": false,
      "inputs": [
        {
          "indexed": false,
          "internalType": "address",
          "name": "oldPendingAdmin",
          "type": "address"
        },
        {
          "indexed": false,
          "internalType": "address",
          "name": "newPendingAdmin",
          "type": "address"
        }
      ],
      "name": "NewPendingAdmin",
      "type": "event"
    },
    {
      "anonymous": false,
      "inputs": [
        {
          "indexed": false,
          "internalType": "uint256",
          "name": "id",
          "type": "uint256"
        }
      ],
      "name": "ProposalCanceled",
      "type": "event"
    },
    {
      "anonymous": false,
      "inputs": [
        {
          "indexed": false,
          "internalType": "uint256",
          "name": "id",
          "type": "uint256"
        },
        {
          "indexed": false,
          "internalType": "address",
          "name": "proposer",
          "type": "address"
        },
        {
          "indexed": false,
          "internalType": "address[]",
          "name": "targets",
          "type": "address[]"
        },
        {
          "indexed": false,
          "internalType": "uint256[]",
          "name": "values",
          "type": "uint256[]"
        },
        {
          "indexed": false,
          "internalType": "string[]",
          "name": "signatures",
          "type": "string[]"
        },
        {
          "indexed": false,
          "internalType": "bytes[]",
          "name": "calldatas",
          "type": "bytes[]"
        },
        {
          "indexed": false,
          "internalType": "uint256",
          "name": "startBlock",
          "type": "uint256"
        },
        {
          "indexed": false,
          "internalType": "uint256",
          "name": "endBlock",
          "type": "uint256"
        },
        {
          "indexed": false,
          "internalType": "string",
          "name": "description",
          "type": "string"
        }
      ],
      "name": "ProposalCreated",
      "type": "event"
    },
    {
      "anonymous": false,
      "inputs": [
        {
          "indexed": false,
          "internalType": "uint256",
          "name": "id",
          "type": "uint256"
        }
      ],
      "name": "ProposalExecuted",
      "type": "event"
    },
    {
      "anonymous": false,
      "inputs": [
        {
          "indexed": false,
          "internalType": "uint256",
          "name": "id",
          "type": "uint256"
        },
        {
          "indexed": false,
          "internalType": "uint256",
          "name": "eta",
          "type": "uint256"
        }
      ],
      "name": "ProposalQueued",
      "type": "event"
    },
    {
      "anonymous": false,
      "inputs": [
        {
          "indexed": false,
          "internalType": "uint256",
          "name": "oldProposalThreshold",
          "type": "uint256"
        },
        {
          "indexed": false,
          "internalType": "uint256",
          "name": "newProposalThreshold",
          "type": "uint256"
        }
      ],
      "name": "ProposalThresholdSet",
      "type": "event"
    },
    {
      "anonymous": false,
      "inputs": [
        {
          "indexed": true,
          "internalType": "address",
          "name": "voter",
          "type": "address"
        },
        {
          "indexed": false,
          "internalType": "uint256",
          "name": "proposalId",
          "type": "uint256"
        },
        {
          "indexed": false,
          "internalType": "uint8",
          "name": "support",
          "type": "uint8"
        },
        {
          "indexed": false,
          "internalType": "uint256",
          "name": "votes",
          "type": "uint256"
        },
        {
          "indexed": false,
          "internalType": "string",
          "name": "reason",
          "type": "string"
        }
      ],
      "name": "VoteCast",
      "type": "event"
    },
    {
      "anonymous": false,
      "inputs": [
        {
          "indexed": false,
          "internalType": "uint256",
          "name": "oldVotingDelay",
          "type": "uint256"
        },
        {
          "indexed": false,
          "internalType": "uint256",
          "name": "newVotingDelay",
          "type": "uint256"
        }
      ],
      "name": "VotingDelaySet",
      "type": "event"
    },
    {
      "anonymous": false,
      "inputs": [
        {
          "indexed": false,
          "internalType": "uint256",
          "name": "oldVotingPeriod",
          "type": "uint256"
        },
        {
          "indexed": false,
          "internalType": "uint256",
          "name": "newVotingPeriod",
          "type": "uint256"
        }
      ],
      "name": "VotingPeriodSet",
      "type": "event"
    },
    {
      "constant": true,
      "inputs": [],
      "name": "BALLOT_TYPEHASH",
      "outputs": [
        {
          "internalType": "bytes32",
          "name": "",
          "type": "bytes32"
        }
      ],
      "payable": false,
      "stateMutability": "view",
      "type": "function"
    },
    {
      "constant": true,
      "inputs": [],
      "name": "DOMAIN_TYPEHASH",
      "outputs": [
        {
          "internalType": "bytes32",
          "name": "",
          "type": "bytes32"
        }
      ],
      "payable": false,
      "stateMutability": "view",
      "type": "function"
    },
    {
      "constant": true,
      "inputs": [],
      "name": "MAX_PROPOSAL_THRESHOLD",
      "outputs": [
        {
          "internalType": "uint256",
          "name": "",
          "type": "uint256"
        }
      ],
      "payable": false,
      "stateMutability": "view",
      "type": "function"
    },
    {
      "constant": true,
      "inputs": [],
      "name": "MAX_VOTING_DELAY",
      "outputs": [
        {
          "internalType": "uint256",
          "name": "",
          "type": "uint256"
        }
      ],
      "payable": false,
      "stateMutability": "view",
      "type": "function"
    },
    {
      "constant": true,
      "inputs": [],
      "name": "MAX_VOTING_PERIOD",
      "outputs": [
        {
          "internalType": "uint256",
          "name": "",
          "type": "uint256"
        }
      ],
      "payable": false,
      "stateMutability": "view",
      "type": "function"
    },
    {
      "constant": true,
      "inputs": [],
      "name": "MIN_PROPOSAL_THRESHOLD",
      "outputs": [
        {
          "internalType": "uint256",
          "name": "",
          "type": "uint256"
        }
      ],
      "payable": false,
      "stateMutability": "view",
      "type": "function"
    },
    {
      "constant": true,
      "inputs": [],
      "name": "MIN_VOTING_DELAY",
      "outputs": [
        {
          "internalType": "uint256",
          "name": "",
          "type": "uint256"
        }
      ],
      "payable": false,
      "stateMutability": "view",
      "type": "function"
    },
    {
      "constant": true,
      "inputs": [],
      "name": "MIN_VOTING_PERIOD",
      "outputs": [
        {
          "internalType": "uint256",
          "name": "",
          "type": "uint256"
        }
      ],
      "payable": false,
      "stateMutability": "view",
      "type": "function"
    },
    {
      "constant": true,
      "inputs": [],
      "name": "admin",
      "outputs": [
        {
          "internalType": "address",
          "name": "",
          "type": "address"
        }
      ],
      "payable": false,
      "stateMutability": "view",
      "type": "function"
    },
    {
      "constant": true,
      "inputs": [],
      "name": "comp",
      "outputs": [
        {
          "internalType": "contract CompInterface",
          "name": "",
          "type": "address"
        }
      ],
      "payable": false,
      "stateMutability": "view",
      "type": "function"
    },
    {
      "constant": true,
      "inputs": [],
      "name": "implementation",
      "outputs": [
        {
          "internalType": "address",
          "name": "",
          "type": "address"
        }
      ],
      "payable": false,
      "stateMutability": "view",
      "type": "function"
    },
    {
      "constant": true,
      "inputs": [],
      "name": "initialProposalId",
      "outputs": [
        {
          "internalType": "uint256",
          "name": "",
          "type": "uint256"
        }
      ],
      "payable": false,
      "stateMutability": "view",
      "type": "function"
    },
    {
      "constant": true,
      "inputs": [
        {
          "internalType": "address",
          "name": "",
          "type": "address"
        }
      ],
      "name": "latestProposalIds",
      "outputs": [
        {
          "internalType": "uint256",
          "name": "",
          "type": "uint256"
        }
      ],
      "payable": false,
      "stateMutability": "view",
      "type": "function"
    },
    {
      "constant": true,
      "inputs": [],
      "name": "name",
      "outputs": [
        {
          "internalType": "string",
          "name": "",
          "type": "string"
        }
      ],
      "payable": false,
      "stateMutability": "view",
      "type": "function"
    },
    {
      "constant": true,
      "inputs": [],
      "name": "pendingAdmin",
      "outputs": [
        {
          "internalType": "address",
          "name": "",
          "type": "address"
        }
      ],
      "payable": false,
      "stateMutability": "view",
      "type": "function"
    },
    {
      "constant": true,
      "inputs": [],
      "name": "proposalCount",
      "outputs": [
        {
          "internalType": "uint256",
          "name": "",
          "type": "uint256"
        }
      ],
      "payable": false,
      "stateMutability": "view",
      "type": "function"
    },
    {
      "constant": true,
      "inputs": [],
      "name": "proposalMaxOperations",
      "outputs": [
        {
          "internalType": "uint256",
          "name": "",
          "type": "uint256"
        }
      ],
      "payable": false,
      "stateMutability": "view",
      "type": "function"
    },
    {
      "constant": true,
      "inputs": [],
      "name": "proposalThreshold",
      "outputs": [
        {
          "internalType": "uint256",
          "name": "",
          "type": "uint256"
        }
      ],
      "payable": false,
      "stateMutability": "view",
      "type": "function"
    },
    {
      "constant": true,
      "inputs": [
        {
          "internalType": "uint256",
          "name": "",
          "type": "uint256"
        }
      ],
      "name": "proposals",
      "outputs": [
        {
          "internalType": "uint256",
          "name": "id",
          "type": "uint256"
        },
        {
          "internalType": "address",
          "name": "proposer",
          "type": "address"
        },
        {
          "internalType": "uint256",
          "name": "eta",
          "type": "uint256"
        },
        {
          "internalType": "uint256",
          "name": "startBlock",
          "type": "uint256"
        },
        {
          "internalType": "uint256",
          "name": "endBlock",
          "type": "uint256"
        },
        {
          "internalType": "uint256",
          "name": "forVotes",
          "type": "uint256"
        },
        {
          "internalType": "uint256",
          "name": "againstVotes",
          "type": "uint256"
        },
        {
          "internalType": "uint256",
          "name": "abstainVotes",
          "type": "uint256"
        },
        {
          "internalType": "bool",
          "name": "canceled",
          "type": "bool"
        },
        {
          "internalType": "bool",
          "name": "executed",
          "type": "bool"
        }
      ],
      "payable": false,
      "stateMutability": "view",
      "type": "function"
    },
    {
      "constant": true,
      "inputs": [],
      "name": "quorumVotes",
      "outputs": [
        {
          "internalType": "uint256",
          "name": "",
          "type": "uint256"
        }
      ],
      "payable": false,
      "stateMutability": "view",
      "type": "function"
    },
    {
      "constant": true,
      "inputs": [],
      "name": "timelock",
      "outputs": [
        {
          "internalType": "contract TimelockInterface",
          "name": "",
          "type": "address"
        }
      ],
      "payable": false,
      "stateMutability": "view",
      "type": "function"
    },
    {
      "constant": true,
      "inputs": [],
      "name": "votingDelay",
      "outputs": [
        {
          "internalType": "uint256",
          "name": "",
          "type": "uint256"
        }
      ],
      "payable": false,
      "stateMutability": "view",
      "type": "function"
    },
    {
      "constant": true,
      "inputs": [],
      "name": "votingPeriod",
      "outputs": [
        {
          "internalType": "uint256",
          "name": "",
          "type": "uint256"
        }
      ],
      "payable": false,
      "stateMutability": "view",
      "type": "function"
    },
    {
      "constant": false,
      "inputs": [
        {
          "internalType": "address",
          "name": "timelock_",
          "type": "address"
        },
        {
          "internalType": "address",
          "name": "comp_",
          "type": "address"
        },
        {
          "internalType": "uint256",
          "name": "votingPeriod_",
          "type": "uint256"
        },
        {
          "internalType": "uint256",
          "name": "votingDelay_",
          "type": "uint256"
        },
        {
          "internalType": "uint256",
          "name": "proposalThreshold_",
          "type": "uint256"
        }
      ],
      "name": "initialize",
      "outputs": [],
      "payable": false,
      "stateMutability": "nonpayable",
      "type": "function"
    },
    {
      "constant": false,
      "inputs": [
        {
          "internalType": "address[]",
          "name": "targets",
          "type": "address[]"
        },
        {
          "internalType": "uint256[]",
          "name": "values",
          "type": "uint256[]"
        },
        {
          "internalType": "string[]",
          "name": "signatures",
          "type": "string[]"
        },
        {
          "internalType": "bytes[]",
          "name": "calldatas",
          "type": "bytes[]"
        },
        {
          "internalType": "string",
          "name": "description",
          "type": "string"
        }
      ],
      "name": "propose",
      "outputs": [
        {
          "internalType": "uint256",
          "name": "",
          "type": "uint256"
        }
      ],
      "payable": false,
      "stateMutability": "nonpayable",
      "type": "function"
    },
    {
      "constant": false,
      "inputs": [
        {
          "internalType": "uint256",
          "name": "proposalId",
          "type": "uint256"
        }
      ],
      "name": "queue",
      "outputs": [],
      "payable": false,
      "stateMutability": "nonpayable",
      "type": "function"
    },
    {
      "constant": false,
      "inputs": [
        {
          "internalType": "uint256",
          "name": "proposalId",
          "type": "uint256"
        }
      ],
      "name": "execute",
      "outputs": [],
      "payable": true,
      "stateMutability": "payable",
      "type": "function"
    },
    {
      "constant": false,
      "inputs": [
        {
          "internalType": "uint256",
          "name": "proposalId",
          "type": "uint256"
        }
      ],
      "name": "cancel",
      "outputs": [],
      "payable": false,
      "stateMutability": "nonpayable",
      "type": "function"
    },
    {
      "constant": true,
      "inputs": [
        {
          "internalType": "uint256",
          "name": "proposalId",
          "type": "uint256"
        }
      ],
      "name": "getActions",
      "outputs": [
        {
          "internalType": "address[]",
          "name": "targets",
          "type": "address[]"
        },
        {
          "internalType": "uint256[]",
          "name": "values",
          "type": "uint256[]"
        },
        {
          "internalType": "string[]",
          "name": "signatures",
          "type": "string[]"
        },
        {
          "internalType": "bytes[]",
          "name": "calldatas",
          "type": "bytes[]"
        }
      ],
      "payable": false,
      "stateMutability": "view",
      "type": "function"
    },
    {
      "constant": true,
      "inputs": [
        {
          "internalType": "uint256",
          "name": "proposalId",
          "type": "uint256"
        },
        {
          "internalType": "address",
          "name": "voter",
          "type": "address"
        }
      ],
      "name": "getReceipt",
      "outputs": [
        {
          "components": [
            {
              "internalType": "bool",
              "name": "hasVoted",
              "type": "bool"
            },
            {
              "internalType": "uint8",
              "name": "support",
              "type": "uint8"
            },
            {
              "internalType": "uint96",
              "name": "votes",
              "type": "uint96"
            }
          ],
          "internalType": "struct GovernorBravoDelegateStorageV1.Receipt",
          "name": "",
          "type": "tuple"
        }
      ],
      "payable": false,
      "stateMutability": "view",
      "type": "function"
    },
    {
      "constant": true,
      "inputs": [
        {
          "internalType": "uint256",
          "name": "proposalId",
          "type": "uint256"
        }
      ],
      "name": "state",
      "outputs": [
        {
          "internalType": "enum GovernorBravoDelegateStorageV1.ProposalState",
          "name": "",
          "type": "uint8"
        }
      ],
      "payable": false,
      "stateMutability": "view",
      "type": "function"
    },
    {
      "constant": false,
      "inputs": [
        {
          "internalType": "uint256",
          "name": "proposalId",
          "type": "uint256"
        },
        {
          "internalType": "uint8",
          "name": "support",
          "type": "uint8"
        }
      ],
      "name": "castVote",
      "outputs": [],
      "payable": false,
      "stateMutability": "nonpayable",
      "type": "function"
    },
    {
      "constant": false,
      "inputs": [
        {
          "internalType": "uint256",
          "name": "proposalId",
          "type": "uint256"
        },
        {
          "internalType": "uint8",
          "name": "support",
          "type": "uint8"
        },
        {
          "internalType": "string",
          "name": "reason",
          "type": "string"
        }
      ],
      "name": "castVoteWithReason",
      "outputs": [],
      "payable": false,
      "stateMutability": "nonpayable",
      "type": "function"
    },
    {
      "constant": false,
      "inputs": [
        {
          "internalType": "uint256",
          "name": "proposalId",
          "type": "uint256"
        },
        {
          "internalType": "uint8",
          "name": "support",
          "type": "uint8"
        },
        {
          "internalType": "uint8",
          "name": "v",
          "type": "uint8"
        },
        {
          "internalType": "bytes32",
          "name": "r",
          "type": "bytes32"
        },
        {
          "internalType": "bytes32",
          "name": "s",
          "type": "bytes32"
        }
      ],
      "name": "castVoteBySig",
      "outputs": [],
      "payable": false,
      "stateMutability": "nonpayable",
      "type": "function"
    },
    {
      "constant": false,
      "inputs": [
        {
          "internalType": "uint256",
          "name": "newVotingDelay",
          "type": "uint256"
        }
      ],
      "name": "_setVotingDelay",
      "outputs": [],
      "payable": false,
      "stateMutability": "nonpayable",
      "type": "function"
    },
    {
      "constant": false,
      "inputs": [
        {
          "internalType": "uint256",
          "name": "newVotingPeriod",
          "type": "uint256"
        }
      ],
      "name": "_setVotingPeriod",
      "outputs": [],
      "payable": false,
      "stateMutability": "nonpayable",
      "type": "function"
    },
    {
      "constant": false,
      "inputs": [
        {
          "internalType": "uint256",
          "name": "newProposalThreshold",
          "type": "uint256"
        }
      ],
      "name": "_setProposalThreshold",
      "outputs": [],
      "payable": false,
      "stateMutability": "nonpayable",
      "type": "function"
    },
    {
      "constant": false,
      "inputs": [
        {
          "internalType": "address",
          "name": "governorAlpha",
          "type": "address"
        }
      ],
      "name": "_initiate",
      "outputs": [],
      "payable": false,
      "stateMutability": "nonpayable",
      "type": "function"
    },
    {
      "constant": false,
      "inputs": [
        {
          "internalType": "address",
          "name": "newPendingAdmin",
          "type": "address"
        }
      ],
      "name": "_setPendingAdmin",
      "outputs": [],
      "payable": false,
      "stateMutability": "nonpayable",
      "type": "function"
    },
    {
      "constant": false,
      "inputs": [],
      "name": "_acceptAdmin",
      "outputs": [],
      "payable": false,
      "stateMutability": "nonpayable",
      "type": "function"
    }
  ],
  "bytecode": "0x608060405234801561001057600080fd5b50614433806100206000396000f3fe60806040526004361061023b5760003560e01c8063791f5d231161012e578063da95691a116100ab578063e9c714f21161006f578063e9c714f21461064e578063f851a44014610663578063f9d28b8014610678578063fc4eee4214610698578063fe0d94c1146106ad5761023b565b8063da95691a146105b7578063ddf0b009146105d7578063deaaa7cc146105f7578063e23a9a521461060c578063e48083fe146106395761023b565b8063b58131b0116100f2578063b58131b014610538578063b71d1a0c1461054d578063d13f90b41461056d578063d33219b41461058d578063da35c664146105a25761023b565b8063791f5d23146104c45780637b3c71d3146104d95780637bdbe4d0146104f9578063a64e024a1461050e578063b1126263146105235761023b565b806324bc1a64116101bc5780633bccf4fd116101805780633bccf4fd146104225780633e4f49e61461044257806340e58ee51461046f578063567813881461048f5780635c60da1b146104af5761023b565b806324bc1a641461039157806325fd935a146103a657806326782247146103bb578063328dd982146103dd5780633932abb11461040d5761023b565b806317977c611161020357806317977c611461030757806317ba1b8b146103275780631dfb1b5a1461034757806320606b7014610367578063215809ca1461037c5761023b565b8063013cf08b1461024057806302a251a31461027f57806306fdde03146102a15780630ea2d98c146102c3578063109d0af8146102e5575b600080fd5b34801561024c57600080fd5b5061026061025b366004612b46565b6106c0565b6040516102769a9998979695949392919061414a565b60405180910390f35b34801561028b57600080fd5b50610294610723565b6040516102769190613d97565b3480156102ad57600080fd5b506102b6610729565b6040516102769190613e53565b3480156102cf57600080fd5b506102e36102de366004612b46565b61075c565b005b3480156102f157600080fd5b506102fa610806565b6040516102769190613e37565b34801561031357600080fd5b5061029461032236600461295b565b610815565b34801561033357600080fd5b506102e3610342366004612b46565b610827565b34801561035357600080fd5b506102e3610362366004612b46565b6108ca565b34801561037357600080fd5b5061029461095d565b34801561038857600080fd5b50610294610974565b34801561039d57600080fd5b5061029461097a565b3480156103b257600080fd5b50610294610988565b3480156103c757600080fd5b506103d0610996565b6040516102769190613c5d565b3480156103e957600080fd5b506103fd6103f8366004612b46565b6109a5565b6040516102769493929190613d4a565b34801561041957600080fd5b50610294610c34565b34801561042e57600080fd5b506102e361043d366004612c36565b610c3a565b34801561044e57600080fd5b5061046261045d366004612b46565b610e15565b6040516102769190613e45565b34801561047b57600080fd5b506102e361048a366004612b46565b610f9b565b34801561049b57600080fd5b506102e36104aa366004612b9e565b6111ef565b3480156104bb57600080fd5b506103d0611239565b3480156104d057600080fd5b50610294611248565b3480156104e557600080fd5b506102e36104f4366004612bce565b611255565b34801561050557600080fd5b506102946112a5565b34801561051a57600080fd5b506102946112aa565b34801561052f57600080fd5b506102946112b1565b34801561054457600080fd5b506102946112b7565b34801561055957600080fd5b506102e361056836600461295b565b6112bd565b34801561057957600080fd5b506102e3610588366004612981565b61133a565b34801561059957600080fd5b506102fa6114b6565b3480156105ae57600080fd5b506102946114c5565b3480156105c357600080fd5b506102946105d23660046129f6565b6114cb565b3480156105e357600080fd5b506102e36105f2366004612b46565b6118f2565b34801561060357600080fd5b50610294611b6e565b34801561061857600080fd5b5061062c610627366004612b64565b611b7a565b6040516102769190614094565b34801561064557600080fd5b50610294611be7565b34801561065a57600080fd5b506102e3611bec565b34801561066f57600080fd5b506103d0611cca565b34801561068457600080fd5b506102e361069336600461295b565b611cd9565b3480156106a457600080fd5b50610294611dff565b6102e36106bb366004612b46565b611e05565b600a60208190526000918252604090912080546001820154600283015460078401546008850154600986015496860154600b870154600c9097015495976001600160a01b0390951696939592949193919290919060ff808216916101009004168a565b60045481565b60405180604001604052806017815260200176436f6d706f756e6420476f7665726e6f7220427261766f60481b81525081565b6000546001600160a01b0316331461078f5760405162461bcd60e51b815260040161078690613ea4565b60405180910390fd5b61168081101580156107a4575062013b008111155b6107c05760405162461bcd60e51b815260040161078690613ed4565b60048054908290556040517f7e3f7f0708a84de9203036abaa450dccc85ad5ff52f78c170f3edb55cf5e8828906107fa90839085906141d0565b60405180910390a15050565b6009546001600160a01b031681565b600b6020526000908152604090205481565b6000546001600160a01b031633146108515760405162461bcd60e51b815260040161078690614054565b68878678326eac9000008110158015610874575069d3c21bcecceda10000008111155b6108905760405162461bcd60e51b815260040161078690613f74565b60058054908290556040517fccb45da8d5717e6c4544694297c4ba5cf151d455c9bb0ed4fc7a38411bc05461906107fa90839085906141d0565b6000546001600160a01b031633146108f45760405162461bcd60e51b815260040161078690613ec4565b600181101580156109075750619d808111155b6109235760405162461bcd60e51b815260040161078690613f04565b60038054908290556040517fc565b045403dc03c2eea82b81a0465edad9e2e7fc4d97e11421c209da93d7a93906107fa90839085906141d0565b60405161096990613c52565b604051809103902081565b61168081565b6934f086f3b33b6840000081565b69d3c21bcecceda100000081565b6001546001600160a01b031681565b6060806060806000600a600087815260200190815260200160002090508060030181600401826005018360060183805480602002602001604051908101604052809291908181526020018280548015610a2757602002820191906000526020600020905b81546001600160a01b03168152600190910190602001808311610a09575b5050505050935082805480602002602001604051908101604052809291908181526020018280548015610a7957602002820191906000526020600020905b815481526020019060010190808311610a65575b5050505050925081805480602002602001604051908101604052809291908181526020016000905b82821015610b4c5760008481526020908190208301805460408051601f6002600019610100600187161502019094169390930492830185900485028101850190915281815292830182828015610b385780601f10610b0d57610100808354040283529160200191610b38565b820191906000526020600020905b815481529060010190602001808311610b1b57829003601f168201915b505050505081526020019060010190610aa1565b50505050915080805480602002602001604051908101604052809291908181526020016000905b82821015610c1e5760008481526020908190208301805460408051601f6002600019610100600187161502019094169390930492830185900485028101850190915281815292830182828015610c0a5780601f10610bdf57610100808354040283529160200191610c0a565b820191906000526020600020905b815481529060010190602001808311610bed57829003601f168201915b505050505081526020019060010190610b73565b5050505090509450945094509450509193509193565b60035481565b6000604051610c4890613c52565b604080519182900382208282019091526017825276436f6d706f756e6420476f7665726e6f7220427261766f60481b6020909201919091527f3d9e905142ff365fb68ce863f26a44f5583cf7ec11bcde450555f50b7e1b5614610ca9611fbe565b30604051602001610cbd9493929190613da5565b6040516020818303038152906040528051906020012090506000604051610ce390613c16565b604051908190038120610cfc9189908990602001613dda565b60405160208183030381529060405280519060200120905060008282604051602001610d29929190613c21565b604051602081830303815290604052805190602001209050600060018288888860405160008152602001604052604051610d669493929190613e02565b6020604051602081039080840390855afa158015610d88573d6000803e3d6000fd5b5050604051601f1901519150506001600160a01b038116610dbb5760405162461bcd60e51b815260040161078690613f34565b806001600160a01b03167fb8e138887d0aa13bab447e82de9d5c1777041ecd21ca36ba824ff1e6c07ddda48a8a610df3858e8e611fc3565b604051610e0293929190614224565b60405180910390a2505050505050505050565b60008160075410158015610e2a575060065482115b610e465760405162461bcd60e51b815260040161078690614064565b6000828152600a60205260409020600c81015460ff1615610e6b576002915050610f96565b80600701544311610e80576000915050610f96565b80600801544311610e95576001915050610f96565b80600a01548160090154111580610eb957506934f086f3b33b684000008160090154105b15610ec8576003915050610f96565b6002810154610edb576004915050610f96565b600c810154610100900460ff1615610ef7576007915050610f96565b6002810154600854604080516360d143f160e11b81529051610f8093926001600160a01b03169163c1a287e2916004808301926020929190829003018186803b158015610f4357600080fd5b505afa158015610f57573d6000803e3d6000fd5b505050506040513d601f19601f82011682018060405250610f7b9190810190612af3565b6121b4565b4210610f90576006915050610f96565b60059150505b919050565b6007610fa682610e15565b6007811115610fb157fe5b1415610fcf5760405162461bcd60e51b815260040161078690614044565b6000818152600a6020526040902060018101546001600160a01b031633148061109757506005546009546001838101546001600160a01b039283169263782d6fe19291169061101f9043906121d9565b6040518363ffffffff1660e01b815260040161103c929190613ca1565b60206040518083038186803b15801561105457600080fd5b505afa158015611068573d6000803e3d6000fd5b505050506040513d601f19601f8201168201806040525061108c9190810190612c7c565b6001600160601b0316105b6110b35760405162461bcd60e51b815260040161078690613fe4565b600c8101805460ff1916600117905560005b60038201548110156111bf576008546003830180546001600160a01b039092169163591fcdfe9190849081106110f757fe5b6000918252602090912001546004850180546001600160a01b03909216918590811061111f57fe5b906000526020600020015485600501858154811061113957fe5b9060005260206000200186600601868154811061115257fe5b9060005260206000200187600201546040518663ffffffff1660e01b8152600401611181959493929190613d09565b600060405180830381600087803b15801561119b57600080fd5b505af11580156111af573d6000803e3d6000fd5b5050600190920191506110c59050565b507f789cf55be980739dad1d0699b93b58e806b51c9d96619bfa8fe0a28abaa7b30c826040516107fa9190613d97565b337fb8e138887d0aa13bab447e82de9d5c1777041ecd21ca36ba824ff1e6c07ddda4838361121e848383611fc3565b60405161122d93929190614224565b60405180910390a25050565b6002546001600160a01b031681565b68878678326eac90000081565b337fb8e138887d0aa13bab447e82de9d5c1777041ecd21ca36ba824ff1e6c07ddda48585611284848383611fc3565b86866040516112979594939291906141de565b60405180910390a250505050565b600a81565b62013b0081565b619d8081565b60055481565b6000546001600160a01b031633146112e75760405162461bcd60e51b815260040161078690613e84565b600180546001600160a01b038381166001600160a01b03198316179092556040519116907fca4f2f25d0898edd99413412fb94012f9e54ec8142f9b093e7720646a95b16a9906107fa9083908590613c86565b6008546001600160a01b0316156113635760405162461bcd60e51b815260040161078690613e74565b6000546001600160a01b0316331461138d5760405162461bcd60e51b815260040161078690613f64565b6001600160a01b0385166113b35760405162461bcd60e51b815260040161078690613eb4565b6001600160a01b0384166113d95760405162461bcd60e51b815260040161078690613fd4565b61168083101580156113ee575062013b008311155b61140a5760405162461bcd60e51b815260040161078690614074565b6001821015801561141d5750619d808211155b6114395760405162461bcd60e51b815260040161078690613f44565b68878678326eac900000811015801561145c575069d3c21bcecceda10000008111155b6114785760405162461bcd60e51b815260040161078690613f14565b600880546001600160a01b039687166001600160a01b0319918216179091556009805495909616941693909317909355600455600391909155600555565b6008546001600160a01b031681565b60075481565b600554600954600091906001600160a01b031663782d6fe1336114ef4360016121d9565b6040518363ffffffff1660e01b815260040161150c929190613c6b565b60206040518083038186803b15801561152457600080fd5b505afa158015611538573d6000803e3d6000fd5b505050506040513d601f19601f8201168201806040525061155c9190810190612c7c565b6001600160601b0316116115825760405162461bcd60e51b815260040161078690614034565b84518651148015611594575083518651145b80156115a1575082518651145b6115bd5760405162461bcd60e51b815260040161078690613f54565b85516115db5760405162461bcd60e51b815260040161078690613fb4565b600a865111156115fd5760405162461bcd60e51b815260040161078690613ff4565b336000908152600b6020526040902054801561167a57600061161e82610e15565b9050600181600781111561162e57fe5b141561164c5760405162461bcd60e51b815260040161078690614014565b600081600781111561165a57fe5b14156116785760405162461bcd60e51b815260040161078690614004565b505b6000611688436003546121b4565b90506000611698826004546121b4565b60078054600101905590506116ab612360565b604051806101c001604052806007548152602001336001600160a01b03168152602001600081526020018b81526020018a815260200189815260200188815260200184815260200183815260200160008152602001600081526020016000815260200160001515815260200160001515815250905080600a6000836000015181526020019081526020016000206000820151816000015560208201518160010160006101000a8154816001600160a01b0302191690836001600160a01b031602179055506040820151816002015560608201518160030190805190602001906117959291906123dc565b50608082015180516117b1916004840191602090910190612441565b5060a082015180516117cd916005840191602090910190612488565b5060c082015180516117e99160068401916020909101906124e1565b5060e082015181600701556101008201518160080155610120820151816009015561014082015181600a015561016082015181600b015561018082015181600c0160006101000a81548160ff0219169083151502179055506101a082015181600c0160016101000a81548160ff0219169083151502179055509050508060000151600b600083602001516001600160a01b03166001600160a01b03168152602001908152602001600020819055507f7d84a6263ae0d98d3329bd7b46bb4e8d6f98cd35a7adb45c274c8b7fd5ebd5e08160000151338c8c8c8c89898e6040516118da999897969594939291906140a2565b60405180910390a15193505050505b95945050505050565b60046118fd82610e15565b600781111561190857fe5b146119255760405162461bcd60e51b815260040161078690613f84565b6000818152600a602090815260408083206008548251630d48571f60e31b8152925191949361197f9342936001600160a01b0390931692636a42b8f892600480840193919291829003018186803b158015610f4357600080fd5b905060005b6003830154811015611b2757611b1f8360030182815481106119a257fe5b6000918252602090912001546004850180546001600160a01b0390921691849081106119ca57fe5b90600052602060002001548560050184815481106119e457fe5b600091825260209182902001805460408051601f6002600019610100600187161502019094169390930492830185900485028101850190915281815292830182828015611a725780601f10611a4757610100808354040283529160200191611a72565b820191906000526020600020905b815481529060010190602001808311611a5557829003601f168201915b5050505050866006018581548110611a8657fe5b600091825260209182902001805460408051601f6002600019610100600187161502019094169390930492830185900485028101850190915281815292830182828015611b145780601f10611ae957610100808354040283529160200191611b14565b820191906000526020600020905b815481529060010190602001808311611af757829003601f168201915b505050505086612201565b600101611984565b50600282018190556040517f9a2e42fd6722813d69113e7d0079d3d940171428df7373df9c7f7617cfda289290611b6190859084906141d0565b60405180910390a1505050565b60405161096990613c16565b611b8261253a565b506000828152600a602090815260408083206001600160a01b0385168452600d018252918290208251606081018452905460ff8082161515835261010082041692820192909252620100009091046001600160601b0316918101919091525b92915050565b600181565b6001546001600160a01b031633148015611c0557503315155b611c215760405162461bcd60e51b815260040161078690613fc4565b60008054600180546001600160a01b038082166001600160a01b03198086168217968790559092169092556040519282169390927ff9ffabca9c8276e99321725bcb43fb076a6c66a54b7f21c4e8146d8519b417dc92611c85928692911690613c86565b60405180910390a16001546040517fca4f2f25d0898edd99413412fb94012f9e54ec8142f9b093e7720646a95b16a9916107fa9184916001600160a01b031690613c86565b6000546001600160a01b031681565b6000546001600160a01b03163314611d035760405162461bcd60e51b815260040161078690614024565b60065415611d235760405162461bcd60e51b815260040161078690613fa4565b806001600160a01b031663da35c6646040518163ffffffff1660e01b8152600401602060405180830381600087803b158015611d5e57600080fd5b505af1158015611d72573d6000803e3d6000fd5b505050506040513d601f19601f82011682018060405250611d969190810190612af3565b600781905560065560085460408051630e18b68160e01b815290516001600160a01b0390921691630e18b6819160048082019260009290919082900301818387803b158015611de457600080fd5b505af1158015611df8573d6000803e3d6000fd5b5050505050565b60065481565b6005611e1082610e15565b6007811115611e1b57fe5b14611e385760405162461bcd60e51b815260040161078690613f24565b6000818152600a60205260408120600c8101805461ff001916610100179055905b6003820154811015611f8e576008546004830180546001600160a01b0390921691630825f38f919084908110611e8b57fe5b9060005260206000200154846003018481548110611ea557fe5b6000918252602090912001546004860180546001600160a01b039092169186908110611ecd57fe5b9060005260206000200154866005018681548110611ee757fe5b90600052602060002001876006018781548110611f0057fe5b9060005260206000200188600201546040518763ffffffff1660e01b8152600401611f2f959493929190613d09565b6000604051808303818588803b158015611f4857600080fd5b505af1158015611f5c573d6000803e3d6000fd5b50505050506040513d6000823e601f3d908101601f19168201604052611f859190810190612b11565b50600101611e59565b507f712ae1383f79ac853f8d882153778e0260ef8f03b504e2866e0593e04d2b291f826040516107fa9190613d97565b465b90565b60006001611fd084610e15565b6007811115611fdb57fe5b14611ff85760405162461bcd60e51b815260040161078690613ee4565b60028260ff16111561201c5760405162461bcd60e51b815260040161078690613e64565b6000838152600a602090815260408083206001600160a01b0388168452600d8101909252909120805460ff16156120655760405162461bcd60e51b815260040161078690613ef4565b600954600783015460405163782d6fe160e01b81526000926001600160a01b03169163782d6fe19161209b918b91600401613ca1565b60206040518083038186803b1580156120b357600080fd5b505afa1580156120c7573d6000803e3d6000fd5b505050506040513d601f19601f820116820180604052506120eb9190810190612c7c565b905060ff85166121165761210c83600a0154826001600160601b03166121b4565b600a84015561216c565b8460ff1660011415612143576121398360090154826001600160601b03166121b4565b600984015561216c565b8460ff166002141561216c5761216683600b0154826001600160601b03166121b4565b600b8401555b8154600160ff199091161761ff00191661010060ff871602176dffffffffffffffffffffffff00001916620100006001600160601b03831602179091559150505b9392505050565b6000828201838110156121ad5760405162461bcd60e51b815260040161078690613f94565b6000828211156121fb5760405162461bcd60e51b815260040161078690614084565b50900390565b6008546040516001600160a01b039091169063f2b065379061222f9088908890889088908890602001613caf565b604051602081830303815290604052805190602001206040518263ffffffff1660e01b81526004016122619190613d97565b60206040518083038186803b15801561227957600080fd5b505afa15801561228d573d6000803e3d6000fd5b505050506040513d601f19601f820116820180604052506122b19190810190612ad5565b156122ce5760405162461bcd60e51b815260040161078690613e94565b600854604051633a66f90160e01b81526001600160a01b0390911690633a66f901906123069088908890889088908890600401613caf565b602060405180830381600087803b15801561232057600080fd5b505af1158015612334573d6000803e3d6000fd5b505050506040513d601f19601f820116820180604052506123589190810190612af3565b505050505050565b604051806101c001604052806000815260200160006001600160a01b03168152602001600081526020016060815260200160608152602001606081526020016060815260200160008152602001600081526020016000815260200160008152602001600081526020016000151581526020016000151581525090565b828054828255906000526020600020908101928215612431579160200282015b8281111561243157825182546001600160a01b0319166001600160a01b039091161782556020909201916001909101906123fc565b5061243d92915061255a565b5090565b82805482825590600052602060002090810192821561247c579160200282015b8281111561247c578251825591602001919060010190612461565b5061243d92915061257e565b8280548282559060005260206000209081019282156124d5579160200282015b828111156124d557825180516124c5918491602090910190612598565b50916020019190600101906124a8565b5061243d929150612605565b82805482825590600052602060002090810192821561252e579160200282015b8281111561252e578251805161251e918491602090910190612598565b5091602001919060010190612501565b5061243d929150612628565b604080516060810182526000808252602082018190529181019190915290565b611fc091905b8082111561243d5780546001600160a01b0319168155600101612560565b611fc091905b8082111561243d5760008155600101612584565b828054600181600116156101000203166002900490600052602060002090601f016020900481019282601f106125d957805160ff191683800117855561247c565b8280016001018555821561247c579182018281111561247c578251825591602001919060010190612461565b611fc091905b8082111561243d57600061261f828261264b565b5060010161260b565b611fc091905b8082111561243d576000612642828261264b565b5060010161262e565b50805460018160011615610100020316600290046000825580601f10612671575061268f565b601f01602090049060005260206000209081019061268f919061257e565b50565b8035611be181614398565b600082601f8301126126ae57600080fd5b81356126c16126bc82614284565b61425d565b915081818352602084019350602081019050838560208402820111156126e657600080fd5b60005b8381101561271257816126fc8882612692565b84525060209283019291909101906001016126e9565b5050505092915050565b600082601f83011261272d57600080fd5b813561273b6126bc82614284565b81815260209384019390925082018360005b8381101561271257813586016127638882612867565b845250602092830192919091019060010161274d565b600082601f83011261278a57600080fd5b81356127986126bc82614284565b81815260209384019390925082018360005b8381101561271257813586016127c08882612867565b84525060209283019291909101906001016127aa565b600082601f8301126127e757600080fd5b81356127f56126bc82614284565b9150818183526020840193506020810190508385602084028201111561281a57600080fd5b60005b8381101561271257816128308882612851565b845250602092830192919091019060010161281d565b8051611be1816143ac565b8035611be1816143b5565b8051611be1816143b5565b600082601f83011261287857600080fd5b81356128866126bc826142a5565b915080825260208301602083018583830111156128a257600080fd5b6128ad83828461434c565b50505092915050565b600082601f8301126128c757600080fd5b81516128d56126bc826142a5565b915080825260208301602083018583830111156128f157600080fd5b6128ad838284614358565b60008083601f84011261290e57600080fd5b50813567ffffffffffffffff81111561292657600080fd5b60208301915083600182028301111561293e57600080fd5b9250929050565b8035611be1816143be565b8051611be1816143c7565b60006020828403121561296d57600080fd5b60006129798484612692565b949350505050565b600080600080600060a0868803121561299957600080fd5b60006129a58888612692565b95505060206129b688828901612692565b94505060406129c788828901612851565b93505060606129d888828901612851565b92505060806129e988828901612851565b9150509295509295909350565b600080600080600060a08688031215612a0e57600080fd5b853567ffffffffffffffff811115612a2557600080fd5b612a318882890161269d565b955050602086013567ffffffffffffffff811115612a4e57600080fd5b612a5a888289016127d6565b945050604086013567ffffffffffffffff811115612a7757600080fd5b612a8388828901612779565b935050606086013567ffffffffffffffff811115612aa057600080fd5b612aac8882890161271c565b925050608086013567ffffffffffffffff811115612ac957600080fd5b6129e988828901612867565b600060208284031215612ae757600080fd5b60006129798484612846565b600060208284031215612b0557600080fd5b6000612979848461285c565b600060208284031215612b2357600080fd5b815167ffffffffffffffff811115612b3a57600080fd5b612979848285016128b6565b600060208284031215612b5857600080fd5b60006129798484612851565b60008060408385031215612b7757600080fd5b6000612b838585612851565b9250506020612b9485828601612692565b9150509250929050565b60008060408385031215612bb157600080fd5b6000612bbd8585612851565b9250506020612b9485828601612945565b60008060008060608587031215612be457600080fd5b6000612bf08787612851565b9450506020612c0187828801612945565b935050604085013567ffffffffffffffff811115612c1e57600080fd5b612c2a878288016128fc565b95989497509550505050565b600080600080600060a08688031215612c4e57600080fd5b6000612c5a8888612851565b9550506020612c6b88828901612945565b94505060406129c788828901612945565b600060208284031215612c8e57600080fd5b60006129798484612950565b6000612ca68383612cd5565b505060200190565b60006121ad8383612e77565b6000612ca68383612e5d565b612ccf81614324565b82525050565b612ccf816142ec565b6000612ce9826142df565b612cf381856142e3565b9350612cfe836142cd565b8060005b83811015612d2c578151612d168882612c9a565b9750612d21836142cd565b925050600101612d02565b509495945050505050565b6000612d42826142df565b612d4c81856142e3565b935083602082028501612d5e856142cd565b8060005b85811015612d985784840389528151612d7b8582612cae565b9450612d86836142cd565b60209a909a0199925050600101612d62565b5091979650505050505050565b6000612db0826142df565b612dba81856142e3565b935083602082028501612dcc856142cd565b8060005b85811015612d985784840389528151612de98582612cae565b9450612df4836142cd565b60209a909a0199925050600101612dd0565b6000612e11826142df565b612e1b81856142e3565b9350612e26836142cd565b8060005b83811015612d2c578151612e3e8882612cba565b9750612e49836142cd565b925050600101612e2a565b612ccf816142f7565b612ccf81611fc0565b612ccf612e7282611fc0565b611fc0565b6000612e82826142df565b612e8c81856142e3565b9350612e9c818560208601614358565b612ea581614384565b9093019392505050565b600081546001811660008114612ecc5760018114612ef257612f31565b607f6002830416612edd81876142e3565b60ff1984168152955050602085019250612f31565b60028204612f0081876142e3565b9550612f0b856142d3565b60005b82811015612f2a57815488820152600190910190602001612f0e565b8701945050505b505092915050565b612ccf8161432b565b612ccf81614336565b6000612f5783856142e3565b9350612f6483858461434c565b612ea583614384565b6000612f7a6032836142e3565b7f476f7665726e6f72427261766f3a3a63617374566f7465496e7465726e616c3a81527120696e76616c696420766f7465207479706560701b602082015260400192915050565b6000612fce602883610f96565b7f42616c6c6f742875696e743235362070726f706f73616c49642c75696e743820815267737570706f72742960c01b602082015260280192915050565b60006130186033836142e3565b7f476f7665726e6f72427261766f3a3a696e697469616c697a653a2063616e206f8152726e6c7920696e697469616c697a65206f6e636560681b602082015260400192915050565b600061306d602a836142e3565b7f476f7665726e6f72427261766f3a5f73657450656e64696e6741646d696e3a2081526961646d696e206f6e6c7960b01b602082015260400192915050565b60006130b96055836142e3565b7f476f7665726e6f72427261766f3a3a71756575654f72526576657274496e746581527f726e616c3a206964656e746963616c2070726f706f73616c20616374696f6e20602082015274616c7265616479207175657565642061742065746160581b604082015260600192915050565b6000613136602b836142e3565b7f476f7665726e6f72427261766f3a3a5f736574566f74696e67506572696f643a81526a2061646d696e206f6e6c7960a81b602082015260400192915050565b60006131836033836142e3565b6000805160206143d183398151915281527269642074696d656c6f636b206164647265737360681b602082015260400192915050565b60006131c6602a836142e3565b7f476f7665726e6f72427261766f3a3a5f736574566f74696e6744656c61793a2081526961646d696e206f6e6c7960b01b602082015260400192915050565b6000613212600283610f96565b61190160f01b815260020192915050565b60006132306036836142e3565b7f476f7665726e6f72427261766f3a3a5f736574566f74696e67506572696f643a815275081a5b9d985b1a59081d9bdd1a5b99c81c195c9a5bd960521b602082015260400192915050565b60006132886031836142e3565b7f476f7665726e6f72427261766f3a3a63617374566f7465496e7465726e616c3a815270081d9bdd1a5b99c81a5cc818db1bdcd959607a1b602082015260400192915050565b60006132db6034836142e3565b7f476f7665726e6f72427261766f3a3a63617374566f7465496e7465726e616c3a815273081d9bdd195c88185b1c9958591e481d9bdd195960621b602082015260400192915050565b60006133316034836142e3565b7f476f7665726e6f72427261766f3a3a5f736574566f74696e6744656c61793a20815273696e76616c696420766f74696e672064656c617960601b602082015260400192915050565b60006133876035836142e3565b6000805160206143d18339815191528152741a59081c1c9bdc1bdcd85b081d1a1c995cda1bdb19605a1b602082015260400192915050565b60006133cc6045836142e3565b7f476f7665726e6f72427261766f3a3a657865637574653a2070726f706f73616c81527f2063616e206f6e6c7920626520657865637574656420696620697420697320716020820152641d595d595960da1b604082015260600192915050565b6000613439602f836142e3565b7f476f7665726e6f72427261766f3a3a63617374566f746542795369673a20696e81526e76616c6964207369676e617475726560881b602082015260400192915050565b600061348a602f836142e3565b6000805160206143d183398151915281526e696420766f74696e672064656c617960881b602082015260400192915050565b60006134c96044836142e3565b7f476f7665726e6f72427261766f3a3a70726f706f73653a2070726f706f73616c81527f2066756e6374696f6e20696e666f726d6174696f6e206172697479206d69736d6020820152630c2e8c6d60e31b604082015260600192915050565b60006135356025836142e3565b7f476f7665726e6f72427261766f3a3a696e697469616c697a653a2061646d696e815264206f6e6c7960d81b602082015260400192915050565b600061357c6040836142e3565b7f476f7665726e6f72427261766f3a3a5f73657450726f706f73616c546872657381527f686f6c643a20696e76616c69642070726f706f73616c207468726573686f6c64602082015260400192915050565b60006135db6044836142e3565b7f476f7665726e6f72427261766f3a3a71756575653a2070726f706f73616c206381527f616e206f6e6c79206265207175657565642069662069742069732073756363656020820152631959195960e21b604082015260600192915050565b60006136476011836142e3565b706164646974696f6e206f766572666c6f7760781b815260200192915050565b6000613674604383610f96565b7f454950373132446f6d61696e28737472696e67206e616d652c75696e7432353681527f20636861696e49642c6164647265737320766572696679696e67436f6e74726160208201526263742960e81b604082015260430192915050565b60006136df6030836142e3565b7f476f7665726e6f72427261766f3a3a5f696e6974696174653a2063616e206f6e81526f6c7920696e697469617465206f6e636560801b602082015260400192915050565b6000613731602c836142e3565b7f476f7665726e6f72427261766f3a3a70726f706f73653a206d7573742070726f81526b7669646520616374696f6e7360a01b602082015260400192915050565b600061377f602e836142e3565b7f476f7665726e6f72427261766f3a5f61636365707441646d696e3a2070656e6481526d696e672061646d696e206f6e6c7960901b602082015260400192915050565b60006137cf602f836142e3565b6000805160206143d183398151915281526e696420636f6d70206164647265737360881b602082015260400192915050565b600061380e602f836142e3565b7f476f7665726e6f72427261766f3a3a63616e63656c3a2070726f706f7365722081526e18589bdd99481d1a1c995cda1bdb19608a1b602082015260400192915050565b600061385f6028836142e3565b7f476f7665726e6f72427261766f3a3a70726f706f73653a20746f6f206d616e7981526720616374696f6e7360c01b602082015260400192915050565b60006138a96059836142e3565b7f476f7665726e6f72427261766f3a3a70726f706f73653a206f6e65206c69766581527f2070726f706f73616c207065722070726f706f7365722c20666f756e6420616e60208201527f20616c72656164792070656e64696e672070726f706f73616c00000000000000604082015260600192915050565b600061392e6058836142e3565b7f476f7665726e6f72427261766f3a3a70726f706f73653a206f6e65206c69766581527f2070726f706f73616c207065722070726f706f7365722c20666f756e6420616e60208201527f20616c7265616479206163746976652070726f706f73616c0000000000000000604082015260600192915050565b6000611be16000836142e3565b60006139c06024836142e3565b7f476f7665726e6f72427261766f3a3a5f696e6974696174653a2061646d696e208152636f6e6c7960e01b602082015260400192915050565b6000613a06603f836142e3565b7f476f7665726e6f72427261766f3a3a70726f706f73653a2070726f706f73657281527f20766f7465732062656c6f772070726f706f73616c207468726573686f6c6400602082015260400192915050565b6000613a656036836142e3565b7f476f7665726e6f72427261766f3a3a63616e63656c3a2063616e6e6f742063618152751b98d95b08195e1958dd5d1959081c1c9bdc1bdcd85b60521b602082015260400192915050565b6000613abd6030836142e3565b7f476f7665726e6f72427261766f3a3a5f73657450726f706f73616c546872657381526f686f6c643a2061646d696e206f6e6c7960801b602082015260400192915050565b6000613b0f6029836142e3565b7f476f7665726e6f72427261766f3a3a73746174653a20696e76616c69642070728152681bdc1bdcd85b081a5960ba1b602082015260400192915050565b6000613b5a6030836142e3565b6000805160206143d183398151915281526f1a59081d9bdd1a5b99c81c195c9a5bd960821b602082015260400192915050565b6000613b9a6015836142e3565b747375627472616374696f6e20756e646572666c6f7760581b815260200192915050565b80516060830190613bcf8482612e54565b506020820151613be26020850182613bfb565b506040820151613bf56040850182613c0d565b50505050565b612ccf81614312565b612ccf81614341565b612ccf81614318565b6000611be182612fc1565b6000613c2c82613205565b9150613c388285612e66565b602082019150613c488284612e66565b5060200192915050565b6000611be182613667565b60208101611be18284612cd5565b60408101613c798285612cc6565b6121ad6020830184612e5d565b60408101613c948285612cd5565b6121ad6020830184612cd5565b60408101613c798285612cd5565b60a08101613cbd8288612cd5565b613cca6020830187612e5d565b8181036040830152613cdc8186612e77565b90508181036060830152613cf08185612e77565b9050613cff6080830184612e5d565b9695505050505050565b60a08101613d178288612cd5565b613d246020830187612e5d565b8181036040830152613d368186612eaf565b90508181036060830152613cf08185612eaf565b60808082528101613d5b8187612cde565b90508181036020830152613d6f8186612e06565b90508181036040830152613d838185612da5565b90508181036060830152613cff8184612d37565b60208101611be18284612e5d565b60808101613db38287612e5d565b613dc06020830186612e5d565b613dcd6040830185612e5d565b6118e96060830184612cd5565b60608101613de88286612e5d565b613df56020830185612e5d565b6129796040830184613bfb565b60808101613e108287612e5d565b613e1d6020830186613bfb565b613e2a6040830185612e5d565b6118e96060830184612e5d565b60208101611be18284612f39565b60208101611be18284612f42565b602080825281016121ad8184612e77565b60208082528101611be181612f6d565b60208082528101611be18161300b565b60208082528101611be181613060565b60208082528101611be1816130ac565b60208082528101611be181613129565b60208082528101611be181613176565b60208082528101611be1816131b9565b60208082528101611be181613223565b60208082528101611be18161327b565b60208082528101611be1816132ce565b60208082528101611be181613324565b60208082528101611be18161337a565b60208082528101611be1816133bf565b60208082528101611be18161342c565b60208082528101611be18161347d565b60208082528101611be1816134bc565b60208082528101611be181613528565b60208082528101611be18161356f565b60208082528101611be1816135ce565b60208082528101611be18161363a565b60208082528101611be1816136d2565b60208082528101611be181613724565b60208082528101611be181613772565b60208082528101611be1816137c2565b60208082528101611be181613801565b60208082528101611be181613852565b60208082528101611be18161389c565b60208082528101611be181613921565b60208082528101611be1816139b3565b60208082528101611be1816139f9565b60208082528101611be181613a58565b60208082528101611be181613ab0565b60208082528101611be181613b02565b60208082528101611be181613b4d565b60208082528101611be181613b8d565b60608101611be18284613bbe565b61012081016140b1828c612e5d565b6140be602083018b612cc6565b81810360408301526140d0818a612cde565b905081810360608301526140e48189612e06565b905081810360808301526140f88188612da5565b905081810360a083015261410c8187612d37565b905061411b60c0830186612e5d565b61412860e0830185612e5d565b81810361010083015261413b8184612e77565b9b9a5050505050505050505050565b6101408101614159828d612e5d565b614166602083018c612cd5565b614173604083018b612e5d565b614180606083018a612e5d565b61418d6080830189612e5d565b61419a60a0830188612e5d565b6141a760c0830187612e5d565b6141b460e0830186612e5d565b6141c2610100830185612e54565b61413b610120830184612e54565b60408101613c798285612e5d565b608081016141ec8288612e5d565b6141f96020830187613bfb565b6142066040830186613c04565b8181036060830152614219818486612f4b565b979650505050505050565b608081016142328286612e5d565b61423f6020830185613bfb565b61424c6040830184613c04565b81810360608301526118e9816139a6565b60405181810167ffffffffffffffff8111828210171561427c57600080fd5b604052919050565b600067ffffffffffffffff82111561429b57600080fd5b5060209081020190565b600067ffffffffffffffff8211156142bc57600080fd5b506020601f91909101601f19160190565b60200190565b60009081526020902090565b5190565b90815260200190565b6000611be182614306565b151590565b80610f968161438e565b6001600160a01b031690565b60ff1690565b6001600160601b031690565b6000611be1825b6000611be1826142ec565b6000611be1826142fc565b6000611be182614318565b82818337506000910152565b60005b8381101561437357818101518382015260200161435b565b83811115613bf55750506000910152565b601f01601f191690565b6008811061268f57fe5b6143a1816142ec565b811461268f57600080fd5b6143a1816142f7565b6143a181611fc0565b6143a181614312565b6143a18161431856fe476f7665726e6f72427261766f3a3a696e697469616c697a653a20696e76616ca365627a7a723158206d21a59ba3ea106f7021869723456fe797a23d05e66307a046597f1bd6ecda726c6578706572696d656e74616cf564736f6c63430005100040",
  "source": "pragma solidity ^0.5.16;\npragma experimental ABIEncoderV2;\n\nimport \"./GovernorBravoInterfaces.sol\";\n\ncontract GovernorBravoDelegate is GovernorBravoDelegateStorageV1, GovernorBravoEvents {\n\n    /// @notice The name of this contract\n    string public constant name = \"Compound Governor Bravo\";\n\n    /// @notice The minimum setable proposal threshold\n    uint public constant MIN_PROPOSAL_THRESHOLD = 2500e18; // 2,500 Comp\n\n    /// @notice The maximum setable proposal threshold\n    uint public constant MAX_PROPOSAL_THRESHOLD = 1000000e18; //1,000,000 Comp\n\n    /// @notice The minimum setable voting period\n    uint public constant MIN_VOTING_PERIOD = 5760; // About 24 hours\n\n    /// @notice The max setable voting period\n    uint public constant MAX_VOTING_PERIOD = 80640; // About 2 weeks\n\n    /// @notice The min setable voting delay\n    uint public constant MIN_VOTING_DELAY = 1;\n\n    /// @notice The max setable voting delay\n    uint public constant MAX_VOTING_DELAY = 40320; // About 1 week\n\n    /// @notice The number of votes in support of a proposal required in order for a quorum to be reached and for a vote to succeed\n    uint public constant quorumVotes = 250000e18; // 250,000\n\n    /// @notice The maximum number of actions that can be included in a proposal\n    uint public constant proposalMaxOperations = 10; // 10 actions\n\n    /// @notice The EIP-712 typehash for the contract's domain\n    bytes32 public constant DOMAIN_TYPEHASH = keccak256(\"EIP712Domain(string name,uint256 chainId,address verifyingContract)\");\n\n    /// @notice The EIP-712 typehash for the ballot struct used by the contract\n    bytes32 public constant BALLOT_TYPEHASH = keccak256(\"Ballot(uint256 proposalId,uint8 support)\");\n\n    /**\n      * @notice Used to initialize the contract during delegator contructor\n      * @param timelock_ The address of the Timelock\n      * @param comp_ The address of the COMP token\n      * @param votingPeriod_ The initial voting period\n      * @param votingDelay_ The initial voting delay\n      * @param proposalThreshold_ The initial proposal threshold\n      */\n    function initialize(address timelock_, address comp_, uint votingPeriod_, uint votingDelay_, uint proposalThreshold_) public {\n        require(address(timelock) == address(0), \"GovernorBravo::initialize: can only initialize once\");\n        require(msg.sender == admin, \"GovernorBravo::initialize: admin only\");\n        require(timelock_ != address(0), \"GovernorBravo::initialize: invalid timelock address\");\n        require(comp_ != address(0), \"GovernorBravo::initialize: invalid comp address\");\n        require(votingPeriod_ >= MIN_VOTING_PERIOD && votingPeriod_ <= MAX_VOTING_PERIOD, \"GovernorBravo::initialize: invalid voting period\");\n        require(votingDelay_ >= MIN_VOTING_DELAY && votingDelay_ <= MAX_VOTING_DELAY, \"GovernorBravo::initialize: invalid voting delay\");\n        require(proposalThreshold_ >= MIN_PROPOSAL_THRESHOLD && proposalThreshold_ <= MAX_PROPOSAL_THRESHOLD, \"GovernorBravo::initialize: invalid proposal threshold\");\n\n        timelock = TimelockInterface(timelock_);\n        comp = CompInterface(comp_);\n        votingPeriod = votingPeriod_;\n        votingDelay = votingDelay_;\n        proposalThreshold = proposalThreshold_;\n    }\n\n    /**\n      * @notice Function used to propose a new proposal. Sender must have delegates above the proposal threshold\n      * @param targets Target addresses for proposal calls\n      * @param values Eth values for proposal calls\n      * @param signatures Function signatures for proposal calls\n      * @param calldatas Calldatas for proposal calls\n      * @param description String description of the proposal\n      * @return Proposal id of new proposal\n      */\n    function propose(address[] memory targets, uint[] memory values, string[] memory signatures, bytes[] memory calldatas, string memory description) public returns (uint) {\n        //require(initialProposalId != 0, \"GovernorBravo::propose: Governor Bravo not active\");\n        require(comp.getPriorVotes(msg.sender, sub256(block.number, 1)) > proposalThreshold, \"GovernorBravo::propose: proposer votes below proposal threshold\");\n        require(targets.length == values.length && targets.length == signatures.length && targets.length == calldatas.length, \"GovernorBravo::propose: proposal function information arity mismatch\");\n        require(targets.length != 0, \"GovernorBravo::propose: must provide actions\");\n        require(targets.length <= proposalMaxOperations, \"GovernorBravo::propose: too many actions\");\n\n        uint latestProposalId = latestProposalIds[msg.sender];\n        if (latestProposalId != 0) {\n          ProposalState proposersLatestProposalState = state(latestProposalId);\n          require(proposersLatestProposalState != ProposalState.Active, \"GovernorBravo::propose: one live proposal per proposer, found an already active proposal\");\n          require(proposersLatestProposalState != ProposalState.Pending, \"GovernorBravo::propose: one live proposal per proposer, found an already pending proposal\");\n        }\n\n        uint startBlock = add256(block.number, votingDelay);\n        uint endBlock = add256(startBlock, votingPeriod);\n\n        proposalCount++;\n        Proposal memory newProposal = Proposal({\n            id: proposalCount,\n            proposer: msg.sender,\n            eta: 0,\n            targets: targets,\n            values: values,\n            signatures: signatures,\n            calldatas: calldatas,\n            startBlock: startBlock,\n            endBlock: endBlock,\n            forVotes: 0,\n            againstVotes: 0,\n            abstainVotes: 0,\n            canceled: false,\n            executed: false\n        });\n\n        proposals[newProposal.id] = newProposal;\n        latestProposalIds[newProposal.proposer] = newProposal.id;\n\n        emit ProposalCreated(newProposal.id, msg.sender, targets, values, signatures, calldatas, startBlock, endBlock, description);\n        return newProposal.id;\n    }\n\n    /**\n      * @notice Queues a proposal of state succeeded\n      * @param proposalId The id of the proposal to queue\n      */\n    function queue(uint proposalId) external {\n        require(state(proposalId) == ProposalState.Succeeded, \"GovernorBravo::queue: proposal can only be queued if it is succeeded\");\n        Proposal storage proposal = proposals[proposalId];\n        uint eta = add256(block.timestamp, timelock.delay());\n        for (uint i = 0; i < proposal.targets.length; i++) {\n            queueOrRevertInternal(proposal.targets[i], proposal.values[i], proposal.signatures[i], proposal.calldatas[i], eta);\n        }\n        proposal.eta = eta;\n        emit ProposalQueued(proposalId, eta);\n    }\n\n    function queueOrRevertInternal(address target, uint value, string memory signature, bytes memory data, uint eta) internal {\n        require(!timelock.queuedTransactions(keccak256(abi.encode(target, value, signature, data, eta))), \"GovernorBravo::queueOrRevertInternal: identical proposal action already queued at eta\");\n        timelock.queueTransaction(target, value, signature, data, eta);\n    }\n\n    /**\n      * @notice Executes a queued proposal if eta has passed\n      * @param proposalId The id of the proposal to execute\n      */\n    function execute(uint proposalId) external payable {\n        require(state(proposalId) == ProposalState.Queued, \"GovernorBravo::execute: proposal can only be executed if it is queued\");\n        Proposal storage proposal = proposals[proposalId];\n        proposal.executed = true;\n        for (uint i = 0; i < proposal.targets.length; i++) {\n            timelock.executeTransaction.value(proposal.values[i])(proposal.targets[i], proposal.values[i], proposal.signatures[i], proposal.calldatas[i], proposal.eta);\n        }\n        emit ProposalExecuted(proposalId);\n    }\n\n    /**\n      * @notice Cancels a proposal only if sender is the proposer, or proposer delegates dropped below proposal threshold\n      * @param proposalId The id of the proposal to cancel\n      */\n    function cancel(uint proposalId) external {\n        require(state(proposalId) != ProposalState.Executed, \"GovernorBravo::cancel: cannot cancel executed proposal\");\n\n        Proposal storage proposal = proposals[proposalId];\n        require(msg.sender == proposal.proposer || comp.getPriorVotes(proposal.proposer, sub256(block.number, 1)) < proposalThreshold, \"GovernorBravo::cancel: proposer above threshold\");\n\n        proposal.canceled = true;\n        for (uint i = 0; i < proposal.targets.length; i++) {\n            timelock.cancelTransaction(proposal.targets[i], proposal.values[i], proposal.signatures[i], proposal.calldatas[i], proposal.eta);\n        }\n\n        emit ProposalCanceled(proposalId);\n    }\n\n    /**\n      * @notice Gets actions of a proposal\n      * @param proposalId the id of the proposal\n      * @return Targets, values, signatures, and calldatas of the proposal actions\n      */\n    function getActions(uint proposalId) external view returns (address[] memory targets, uint[] memory values, string[] memory signatures, bytes[] memory calldatas) {\n        Proposal storage p = proposals[proposalId];\n        return (p.targets, p.values, p.signatures, p.calldatas);\n    }\n\n    /**\n      * @notice Gets the receipt for a voter on a given proposal\n      * @param proposalId the id of proposal\n      * @param voter The address of the voter\n      * @return The voting receipt\n      */\n    function getReceipt(uint proposalId, address voter) external view returns (Receipt memory) {\n        return proposals[proposalId].receipts[voter];\n    }\n\n    /**\n      * @notice Gets the state of a proposal\n      * @param proposalId The id of the proposal\n      * @return Proposal state\n      */\n    function state(uint proposalId) public view returns (ProposalState) {\n        require(proposalCount >= proposalId && proposalId > initialProposalId, \"GovernorBravo::state: invalid proposal id\");\n        Proposal storage proposal = proposals[proposalId];\n        if (proposal.canceled) {\n            return ProposalState.Canceled;\n        } else if (block.number <= proposal.startBlock) {\n            return ProposalState.Pending;\n        } else if (block.number <= proposal.endBlock) {\n            return ProposalState.Active;\n        } else if (proposal.forVotes <= proposal.againstVotes || proposal.forVotes < quorumVotes) {\n            return ProposalState.Defeated;\n        } else if (proposal.eta == 0) {\n            return ProposalState.Succeeded;\n        } else if (proposal.executed) {\n            return ProposalState.Executed;\n        } else if (block.timestamp >= add256(proposal.eta, timelock.GRACE_PERIOD())) {\n            return ProposalState.Expired;\n        } else {\n            return ProposalState.Queued;\n        }\n    }\n\n    /**\n      * @notice Cast a vote for a proposal\n      * @param proposalId The id of the proposal to vote on\n      * @param support The support value for the vote. 0=against, 1=for, 2=abstain\n      */\n    function castVote(uint proposalId, uint8 support) external {\n        emit VoteCast(msg.sender, proposalId, support, castVoteInternal(msg.sender, proposalId, support), \"\");\n    }\n\n    /**\n      * @notice Cast a vote for a proposal with a reason\n      * @param proposalId The id of the proposal to vote on\n      * @param support The support value for the vote. 0=against, 1=for, 2=abstain\n      * @param reason The reason given for the vote by the voter\n      */\n    function castVoteWithReason(uint proposalId, uint8 support, string calldata reason) external {\n        emit VoteCast(msg.sender, proposalId, support, castVoteInternal(msg.sender, proposalId, support), reason);\n    }\n\n    /**\n      * @notice Cast a vote for a proposal by signature\n      * @dev External function that accepts EIP-712 signatures for voting on proposals.\n      */\n    function castVoteBySig(uint proposalId, uint8 support, uint8 v, bytes32 r, bytes32 s) external {\n        bytes32 domainSeparator = keccak256(abi.encode(DOMAIN_TYPEHASH, keccak256(bytes(name)), getChainIdInternal(), address(this)));\n        bytes32 structHash = keccak256(abi.encode(BALLOT_TYPEHASH, proposalId, support));\n        bytes32 digest = keccak256(abi.encodePacked(\"\\x19\\x01\", domainSeparator, structHash));\n        address signatory = ecrecover(digest, v, r, s);\n        require(signatory != address(0), \"GovernorBravo::castVoteBySig: invalid signature\");\n        emit VoteCast(signatory, proposalId, support, castVoteInternal(signatory, proposalId, support), \"\");\n    }\n\n    /**\n      * @notice Internal function that caries out voting logic\n      * @param voter The voter that is casting their vote\n      * @param proposalId The id of the proposal to vote on\n      * @param support The support value for the vote. 0=against, 1=for, 2=abstain\n      * @return The number of votes cast\n      */\n    function castVoteInternal(address voter, uint proposalId, uint8 support) internal returns (uint96) {\n        require(state(proposalId) == ProposalState.Active, \"GovernorBravo::castVoteInternal: voting is closed\");\n        require(support <= 2, \"GovernorBravo::castVoteInternal: invalid vote type\");\n        Proposal storage proposal = proposals[proposalId];\n        Receipt storage receipt = proposal.receipts[voter];\n        require(receipt.hasVoted == false, \"GovernorBravo::castVoteInternal: voter already voted\");\n        uint96 votes = comp.getPriorVotes(voter, proposal.startBlock);\n\n        if (support == 0) {\n            proposal.againstVotes = add256(proposal.againstVotes, votes);\n        } else if (support == 1) {\n            proposal.forVotes = add256(proposal.forVotes, votes);\n        } else if (support == 2) {\n            proposal.abstainVotes = add256(proposal.abstainVotes, votes);\n        }\n\n        receipt.hasVoted = true;\n        receipt.support = support;\n        receipt.votes = votes;\n\n        return votes;\n    }\n\n    /**\n      * @notice Admin function for setting the voting delay\n      * @param newVotingDelay new voting delay, in blocks\n      */\n    function _setVotingDelay(uint newVotingDelay) external {\n        require(msg.sender == admin, \"GovernorBravo::_setVotingDelay: admin only\");\n        require(newVotingDelay >= MIN_VOTING_DELAY && newVotingDelay <= MAX_VOTING_DELAY, \"GovernorBravo::_setVotingDelay: invalid voting delay\");\n        uint oldVotingDelay = votingDelay;\n        votingDelay = newVotingDelay;\n\n        emit VotingDelaySet(oldVotingDelay,votingDelay);\n    }\n\n    /**\n      * @notice Admin function for setting the voting period\n      * @param newVotingPeriod new voting period, in blocks\n      */\n    function _setVotingPeriod(uint newVotingPeriod) external {\n        require(msg.sender == admin, \"GovernorBravo::_setVotingPeriod: admin only\");\n        require(newVotingPeriod >= MIN_VOTING_PERIOD && newVotingPeriod <= MAX_VOTING_PERIOD, \"GovernorBravo::_setVotingPeriod: invalid voting period\");\n        uint oldVotingPeriod = votingPeriod;\n        votingPeriod = newVotingPeriod;\n\n        emit VotingPeriodSet(oldVotingPeriod, votingPeriod);\n    }\n\n    /**\n      * @notice Admin function for setting the proposal threshold\n      * @dev newProposalThreshold must be greater than the hardcoded min\n      * @param newProposalThreshold new proposal threshold\n      */\n    function _setProposalThreshold(uint newProposalThreshold) external {\n        require(msg.sender == admin, \"GovernorBravo::_setProposalThreshold: admin only\");\n        require(newProposalThreshold >= MIN_PROPOSAL_THRESHOLD && newProposalThreshold <= MAX_PROPOSAL_THRESHOLD, \"GovernorBravo::_setProposalThreshold: invalid proposal threshold\");\n        uint oldProposalThreshold = proposalThreshold;\n        proposalThreshold = newProposalThreshold;\n\n        emit ProposalThresholdSet(oldProposalThreshold, proposalThreshold);\n    }\n\n    /**\n      * @notice Initiate the GovernorBravo contract\n      * @dev Admin only. Sets initial proposal id which initiates the contract, ensuring a continuous proposal id count\n      * @param governorAlpha The address for the Governor to continue the proposal id count from\n      */\n    function _initiate(address governorAlpha) external {\n        require(msg.sender == admin, \"GovernorBravo::_initiate: admin only\");\n        require(initialProposalId == 0, \"GovernorBravo::_initiate: can only initiate once\");\n        proposalCount = GovernorAlpha(governorAlpha).proposalCount();\n        initialProposalId = proposalCount;\n        timelock.acceptAdmin();\n    }\n\n    /**\n      * @notice Begins transfer of admin rights. The newPendingAdmin must call `_acceptAdmin` to finalize the transfer.\n      * @dev Admin function to begin change of admin. The newPendingAdmin must call `_acceptAdmin` to finalize the transfer.\n      * @param newPendingAdmin New pending admin.\n      */\n    function _setPendingAdmin(address newPendingAdmin) external {\n        // Check caller = admin\n        require(msg.sender == admin, \"GovernorBravo:_setPendingAdmin: admin only\");\n\n        // Save current value, if any, for inclusion in log\n        address oldPendingAdmin = pendingAdmin;\n\n        // Store pendingAdmin with value newPendingAdmin\n        pendingAdmin = newPendingAdmin;\n\n        // Emit NewPendingAdmin(oldPendingAdmin, newPendingAdmin)\n        emit NewPendingAdmin(oldPendingAdmin, newPendingAdmin);\n    }\n\n    /**\n      * @notice Accepts transfer of admin rights. msg.sender must be pendingAdmin\n      * @dev Admin function for pending admin to accept role and update admin\n      */\n    function _acceptAdmin() external {\n        // Check caller is pendingAdmin and pendingAdmin  address(0)\n        require(msg.sender == pendingAdmin && msg.sender != address(0), \"GovernorBravo:_acceptAdmin: pending admin only\");\n\n        // Save current values for inclusion in log\n        address oldAdmin = admin;\n        address oldPendingAdmin = pendingAdmin;\n\n        // Store admin with value pendingAdmin\n        admin = pendingAdmin;\n\n        // Clear the pending value\n        pendingAdmin = address(0);\n\n        emit NewAdmin(oldAdmin, admin);\n        emit NewPendingAdmin(oldPendingAdmin, pendingAdmin);\n    }\n\n    function add256(uint256 a, uint256 b) internal pure returns (uint) {\n        uint c = a + b;\n        require(c >= a, \"addition overflow\");\n        return c;\n    }\n\n    function sub256(uint256 a, uint256 b) internal pure returns (uint) {\n        require(b <= a, \"subtraction underflow\");\n        return a - b;\n    }\n\n    function getChainIdInternal() internal pure returns (uint) {\n        uint chainId;\n        assembly { chainId := chainid() }\n        return chainId;\n    }\n}",
  "sourcePath": "/Users/afshanaman/Development/personal/blockchain/BPRO/contracts/GovernorBravoDelegate.sol",
  "compiler": {
    "name": "solc",
    "version": "0.5.16+commit.9c3226ce.Emscripten.clang"
  },
  "schemaVersion": "3.3.4",
  "updatedAt": "2021-07-10T23:16:21.433Z",
  "devdoc": {
    "methods": {
      "_acceptAdmin()": {
        "details": "Admin function for pending admin to accept role and update admin"
      },
      "_initiate(address)": {
        "details": "Admin only. Sets initial proposal id which initiates the contract, ensuring a continuous proposal id count",
        "params": {
          "governorAlpha": "The address for the Governor to continue the proposal id count from"
        }
      },
      "_setPendingAdmin(address)": {
        "details": "Admin function to begin change of admin. The newPendingAdmin must call `_acceptAdmin` to finalize the transfer.",
        "params": {
          "newPendingAdmin": "New pending admin."
        }
      },
      "_setProposalThreshold(uint256)": {
        "details": "newProposalThreshold must be greater than the hardcoded min",
        "params": {
          "newProposalThreshold": "new proposal threshold"
        }
      },
      "_setVotingDelay(uint256)": {
        "params": {
          "newVotingDelay": "new voting delay, in blocks"
        }
      },
      "_setVotingPeriod(uint256)": {
        "params": {
          "newVotingPeriod": "new voting period, in blocks"
        }
      },
      "cancel(uint256)": {
        "params": {
          "proposalId": "The id of the proposal to cancel"
        }
      },
      "castVote(uint256,uint8)": {
        "params": {
          "proposalId": "The id of the proposal to vote on",
          "support": "The support value for the vote. 0=against, 1=for, 2=abstain"
        }
      },
      "castVoteBySig(uint256,uint8,uint8,bytes32,bytes32)": {
        "details": "External function that accepts EIP-712 signatures for voting on proposals."
      },
      "castVoteWithReason(uint256,uint8,string)": {
        "params": {
          "proposalId": "The id of the proposal to vote on",
          "reason": "The reason given for the vote by the voter",
          "support": "The support value for the vote. 0=against, 1=for, 2=abstain"
        }
      },
      "execute(uint256)": {
        "params": {
          "proposalId": "The id of the proposal to execute"
        }
      },
      "getActions(uint256)": {
        "params": {
          "proposalId": "the id of the proposal"
        },
        "return": "Targets, values, signatures, and calldatas of the proposal actions"
      },
      "getReceipt(uint256,address)": {
        "params": {
          "proposalId": "the id of proposal",
          "voter": "The address of the voter"
        },
        "return": "The voting receipt"
      },
      "initialize(address,address,uint256,uint256,uint256)": {
        "params": {
          "comp_": "The address of the COMP token",
          "proposalThreshold_": "The initial proposal threshold",
          "timelock_": "The address of the Timelock",
          "votingDelay_": "The initial voting delay",
          "votingPeriod_": "The initial voting period"
        }
      },
      "propose(address[],uint256[],string[],bytes[],string)": {
        "params": {
          "calldatas": "Calldatas for proposal calls",
          "description": "String description of the proposal",
          "signatures": "Function signatures for proposal calls",
          "targets": "Target addresses for proposal calls",
          "values": "Eth values for proposal calls"
        },
        "return": "Proposal id of new proposal"
      },
      "queue(uint256)": {
        "params": {
          "proposalId": "The id of the proposal to queue"
        }
      },
      "state(uint256)": {
        "params": {
          "proposalId": "The id of the proposal"
        },
        "return": "Proposal state"
      }
    }
  },
  "userdoc": {
    "methods": {
      "_acceptAdmin()": {
        "notice": "Accepts transfer of admin rights. msg.sender must be pendingAdmin"
      },
      "_initiate(address)": {
        "notice": "Initiate the GovernorBravo contract"
      },
      "_setPendingAdmin(address)": {
        "notice": "Begins transfer of admin rights. The newPendingAdmin must call `_acceptAdmin` to finalize the transfer."
      },
      "_setProposalThreshold(uint256)": {
        "notice": "Admin function for setting the proposal threshold"
      },
      "_setVotingDelay(uint256)": {
        "notice": "Admin function for setting the voting delay"
      },
      "_setVotingPeriod(uint256)": {
        "notice": "Admin function for setting the voting period"
      },
      "cancel(uint256)": {
        "notice": "Cancels a proposal only if sender is the proposer, or proposer delegates dropped below proposal threshold"
      },
      "castVote(uint256,uint8)": {
        "notice": "Cast a vote for a proposal"
      },
      "castVoteBySig(uint256,uint8,uint8,bytes32,bytes32)": {
        "notice": "Cast a vote for a proposal by signature"
      },
      "castVoteWithReason(uint256,uint8,string)": {
        "notice": "Cast a vote for a proposal with a reason"
      },
      "execute(uint256)": {
        "notice": "Executes a queued proposal if eta has passed"
      },
      "getActions(uint256)": {
        "notice": "Gets actions of a proposal"
      },
      "getReceipt(uint256,address)": {
        "notice": "Gets the receipt for a voter on a given proposal"
      },
      "initialize(address,address,uint256,uint256,uint256)": {
        "notice": "Used to initialize the contract during delegator contructor"
      },
      "propose(address[],uint256[],string[],bytes[],string)": {
        "notice": "Function used to propose a new proposal. Sender must have delegates above the proposal threshold"
      },
      "queue(uint256)": {
        "notice": "Queues a proposal of state succeeded"
      },
      "state(uint256)": {
        "notice": "Gets the state of a proposal"
      }
    }
  }
}