{
  "contractName": "MockMiner",
  "abi": [
    {
      "inputs": [
        {
          "internalType": "contract BPROLike",
          "name": "_bpro",
          "type": "address"
        },
        {
          "internalType": "address",
          "name": "_reservoir",
          "type": "address"
        },
        {
          "internalType": "address",
          "name": "_devPool",
          "type": "address"
        },
        {
          "internalType": "address",
          "name": "_userPool",
          "type": "address"
        },
        {
          "internalType": "address",
          "name": "_backstopPool",
          "type": "address"
        }
      ],
      "payable": false,
      "stateMutability": "nonpayable",
      "type": "constructor"
    },
    {
      "anonymous": false,
      "inputs": [
        {
          "indexed": false,
          "internalType": "address",
          "name": "newPool",
          "type": "address"
        }
      ],
      "name": "BackstopPoolSet",
      "type": "event"
    },
    {
      "anonymous": false,
      "inputs": [
        {
          "indexed": false,
          "internalType": "address",
          "name": "newPool",
          "type": "address"
        }
      ],
      "name": "DevPoolSet",
      "type": "event"
    },
    {
      "anonymous": false,
      "inputs": [
        {
          "indexed": false,
          "internalType": "address",
          "name": "newMinter",
          "type": "address"
        }
      ],
      "name": "MinterSet",
      "type": "event"
    },
    {
      "anonymous": false,
      "inputs": [
        {
          "indexed": true,
          "internalType": "address",
          "name": "previousOwner",
          "type": "address"
        },
        {
          "indexed": true,
          "internalType": "address",
          "name": "newOwner",
          "type": "address"
        }
      ],
      "name": "OwnershipTransferred",
      "type": "event"
    },
    {
      "anonymous": false,
      "inputs": [
        {
          "indexed": false,
          "internalType": "address",
          "name": "newPool",
          "type": "address"
        }
      ],
      "name": "ReservoirSet",
      "type": "event"
    },
    {
      "anonymous": false,
      "inputs": [
        {
          "indexed": false,
          "internalType": "address",
          "name": "newPool",
          "type": "address"
        }
      ],
      "name": "UserPoolSet",
      "type": "event"
    },
    {
      "constant": true,
      "inputs": [],
      "name": "backstopPool",
      "outputs": [
        {
          "internalType": "address",
          "name": "",
          "type": "address"
        }
      ],
      "payable": false,
      "stateMutability": "view",
      "type": "function"
    },
    {
      "constant": true,
      "inputs": [],
      "name": "bpro",
      "outputs": [
        {
          "internalType": "contract BPROLike",
          "name": "",
          "type": "address"
        }
      ],
      "payable": false,
      "stateMutability": "view",
      "type": "function"
    },
    {
      "constant": true,
      "inputs": [],
      "name": "deploymentBlock",
      "outputs": [
        {
          "internalType": "uint256",
          "name": "",
          "type": "uint256"
        }
      ],
      "payable": false,
      "stateMutability": "view",
      "type": "function"
    },
    {
      "constant": true,
      "inputs": [],
      "name": "deploymentTime",
      "outputs": [
        {
          "internalType": "uint256",
          "name": "",
          "type": "uint256"
        }
      ],
      "payable": false,
      "stateMutability": "view",
      "type": "function"
    },
    {
      "constant": true,
      "inputs": [],
      "name": "devPool",
      "outputs": [
        {
          "internalType": "address",
          "name": "",
          "type": "address"
        }
      ],
      "payable": false,
      "stateMutability": "view",
      "type": "function"
    },
    {
      "constant": false,
      "inputs": [],
      "name": "dripBackstop",
      "outputs": [],
      "payable": false,
      "stateMutability": "nonpayable",
      "type": "function"
    },
    {
      "constant": false,
      "inputs": [],
      "name": "dripDev",
      "outputs": [],
      "payable": false,
      "stateMutability": "nonpayable",
      "type": "function"
    },
    {
      "constant": false,
      "inputs": [],
      "name": "dripReservoir",
      "outputs": [],
      "payable": false,
      "stateMutability": "nonpayable",
      "type": "function"
    },
    {
      "constant": false,
      "inputs": [],
      "name": "dripUser",
      "outputs": [],
      "payable": false,
      "stateMutability": "nonpayable",
      "type": "function"
    },
    {
      "constant": true,
      "inputs": [],
      "name": "genesisPool",
      "outputs": [
        {
          "internalType": "address",
          "name": "",
          "type": "address"
        }
      ],
      "payable": false,
      "stateMutability": "view",
      "type": "function"
    },
    {
      "constant": true,
      "inputs": [],
      "name": "isOwner",
      "outputs": [
        {
          "internalType": "bool",
          "name": "",
          "type": "bool"
        }
      ],
      "payable": false,
      "stateMutability": "view",
      "type": "function"
    },
    {
      "constant": true,
      "inputs": [],
      "name": "owner",
      "outputs": [
        {
          "internalType": "address",
          "name": "",
          "type": "address"
        }
      ],
      "payable": false,
      "stateMutability": "view",
      "type": "function"
    },
    {
      "constant": false,
      "inputs": [],
      "name": "renounceOwnership",
      "outputs": [],
      "payable": false,
      "stateMutability": "nonpayable",
      "type": "function"
    },
    {
      "constant": true,
      "inputs": [],
      "name": "reservoir",
      "outputs": [
        {
          "internalType": "address",
          "name": "",
          "type": "address"
        }
      ],
      "payable": false,
      "stateMutability": "view",
      "type": "function"
    },
    {
      "constant": false,
      "inputs": [
        {
          "internalType": "address",
          "name": "newPool",
          "type": "address"
        }
      ],
      "name": "setBackstopPool",
      "outputs": [],
      "payable": false,
      "stateMutability": "nonpayable",
      "type": "function"
    },
    {
      "constant": false,
      "inputs": [
        {
          "internalType": "address",
          "name": "newPool",
          "type": "address"
        }
      ],
      "name": "setDevPool",
      "outputs": [],
      "payable": false,
      "stateMutability": "nonpayable",
      "type": "function"
    },
    {
      "constant": false,
      "inputs": [
        {
          "internalType": "address",
          "name": "newMinter",
          "type": "address"
        }
      ],
      "name": "setMinter",
      "outputs": [],
      "payable": false,
      "stateMutability": "nonpayable",
      "type": "function"
    },
    {
      "constant": false,
      "inputs": [
        {
          "internalType": "address",
          "name": "newPool",
          "type": "address"
        }
      ],
      "name": "setReservoir",
      "outputs": [],
      "payable": false,
      "stateMutability": "nonpayable",
      "type": "function"
    },
    {
      "constant": false,
      "inputs": [
        {
          "internalType": "address",
          "name": "newPool",
          "type": "address"
        }
      ],
      "name": "setUserPool",
      "outputs": [],
      "payable": false,
      "stateMutability": "nonpayable",
      "type": "function"
    },
    {
      "constant": false,
      "inputs": [
        {
          "internalType": "address",
          "name": "newOwner",
          "type": "address"
        }
      ],
      "name": "transferOwnership",
      "outputs": [],
      "payable": false,
      "stateMutability": "nonpayable",
      "type": "function"
    },
    {
      "constant": true,
      "inputs": [],
      "name": "userPool",
      "outputs": [
        {
          "internalType": "address",
          "name": "",
          "type": "address"
        }
      ],
      "payable": false,
      "stateMutability": "view",
      "type": "function"
    },
    {
      "constant": false,
      "inputs": [
        {
          "internalType": "uint256",
          "name": "delta",
          "type": "uint256"
        }
      ],
      "name": "fwdBlockNumber",
      "outputs": [],
      "payable": false,
      "stateMutability": "nonpayable",
      "type": "function"
    },
    {
      "constant": true,
      "inputs": [],
      "name": "getBlockNumber",
      "outputs": [
        {
          "internalType": "uint256",
          "name": "",
          "type": "uint256"
        }
      ],
      "payable": false,
      "stateMutability": "view",
      "type": "function"
    }
  ],
  "bytecode": "0x608060405234801561001057600080fd5b50604051610d48380380610d48833981810160405260a081101561003357600080fd5b508051602082015160408301516060840151608090940151929391929091908484848484600061006a6001600160e01b0361014916565b600080546001600160a01b0319166001600160a01b0383169081178255604051929350917f8be0079c531659141344cd1fd0a4f28419497f9722a3daafe3b4186f6b6457e0908290a350600180546001600160a01b038087166001600160a01b0319928316179092556002805486841690831617905560038054858416908316179055600480549284169290911691909117905561010f6001600160e01b0361014e16565b6006555050426007555050600980546001600160a01b0319166001600160a01b0392909216919091179055505043600a5550610169915050565b335b90565b6000600a546000141561016257504361014b565b50600a5490565b610bd0806101786000396000f3fe608060405234801561001057600080fd5b506004361061014d5760003560e01c80638da5cb5b116100c3578063d715c1b71161007c578063d715c1b714610278578063e8b1ccd314610295578063ecda10f5146102bb578063f2fde38b146102c3578063f8cf0187146102e9578063fca3b5aa146102f15761014d565b80638da5cb5b146102165780638f32d59b1461021e578063978172291461023a578063a678af1814610260578063b5838a2714610268578063d14e0c4d146102705761014d565b80634b56c11f116101155780634b56c11f146101e65780635e3731ee146101ee578063715018a6146101f657806380a476fe146101fe5780638200bfe61461020657806382100e3f1461020e5761014d565b8063151e6aa51461015257806316e8af2c146101765780631adc69301461019e57806342cbb15c146101a657806346f49d7b146101c0575b600080fd5b61015a610317565b604080516001600160a01b039092168252519081900360200190f35b61019c6004803603602081101561018c57600080fd5b50356001600160a01b0316610326565b005b61015a61041d565b6101ae61042c565b60408051918252519081900360200190f35b61019c600480360360208110156101d657600080fd5b50356001600160a01b0316610448565b61019c6104e3565b61019c610522565b61019c610559565b61015a6105ea565b61015a6105f9565b6101ae610608565b61015a61060e565b61022661061d565b604080519115158252519081900360200190f35b61019c6004803603602081101561025057600080fd5b50356001600160a01b0316610641565b61019c6106dc565b61015a61070b565b61019c61071a565b61019c6004803603602081101561028e57600080fd5b503561075b565b61019c600480360360208110156102ab57600080fd5b50356001600160a01b0316610766565b6101ae610801565b61019c600480360360208110156102d957600080fd5b50356001600160a01b0316610807565b61015a610857565b61019c6004803603602081101561030757600080fd5b50356001600160a01b0316610866565b6001546001600160a01b031681565b61032e61061d565b61036d576040805162461bcd60e51b81526020600482018190526024820152600080516020610b7c833981519152604482015290519081900360640190fd5b6301e133806007540142116103c9576040805162461bcd60e51b815260206004820152601860248201527f736574446576506f6f6c3a20776169742d312d79656172730000000000000000604482015290519081900360640190fd5b600280546001600160a01b0383166001600160a01b0319909116811790915560408051918252517f7b154574bda5e852813b572379b10a0e9f76879ad9160609fc31358a0b0bbee79181900360200190a150565b6003546001600160a01b031681565b6000600a5460001415610440575043610445565b50600a545b90565b61045061061d565b61048f576040805162461bcd60e51b81526020600482018190526024820152600080516020610b7c833981519152604482015290519081900360640190fd5b600380546001600160a01b0383166001600160a01b0319909116811790915560408051918252517fbbb326e5b6b904ba5d202fb7c0fe23b06366102cdc1931ed62c7f428127828c59181900360200190a150565b600454610520906001600160a01b03166b0647269704261636b73746f760a41b62241710691fc3842bd1f071c000000462241710600654016109af565b565b600154610520906001600160a01b0316683932b9b2b93b37b4b960b91b622417106a01189464d86921422000005b046000196109af565b61056161061d565b6105a0576040805162461bcd60e51b81526020600482018190526024820152600080516020610b7c833981519152604482015290519081900360640190fd5b600080546040516001600160a01b03909116907f8be0079c531659141344cd1fd0a4f28419497f9722a3daafe3b4186f6b6457e0908390a3600080546001600160a01b0319169055565b6005546001600160a01b031681565b6004546001600160a01b031681565b60065481565b6000546001600160a01b031690565b600080546001600160a01b0316610632610ab1565b6001600160a01b031614905090565b61064961061d565b610688576040805162461bcd60e51b81526020600482018190526024820152600080516020610b7c833981519152604482015290519081900360640190fd5b600180546001600160a01b0383166001600160a01b0319909116811790915560408051918252517f96ba03d9ea07e564ab1b03b74fc8ea6b65860be3835b2fac8fa3d20087b3c2839181900360200190a150565b600254610520906001600160a01b03166619195d941bdbdb60ca1b6224171069aeb356f102aa71a00000610550565b6002546001600160a01b031681565b6003546911a582513bbe7815555590610758906001600160a01b031667323934b82ab9b2b960c11b620301ec8460065491900490620905c4016109af565b50565b600a80549091019055565b61076e61061d565b6107ad576040805162461bcd60e51b81526020600482018190526024820152600080516020610b7c833981519152604482015290519081900360640190fd5b600480546001600160a01b0383166001600160a01b0319909116811790915560408051918252517ff053af67c5dd84e8822e50887e861eb77c0547ba2b0d7c371bdd3aa12d4b05ee9181900360200190a150565b60075481565b61080f61061d565b61084e576040805162461bcd60e51b81526020600482018190526024820152600080516020610b7c833981519152604482015290519081900360640190fd5b61075881610ab5565b6009546001600160a01b031681565b61086e61061d565b6108ad576040805162461bcd60e51b81526020600482018190526024820152600080516020610b7c833981519152604482015290519081900360640190fd5b600754630784ce00014211610909576040805162461bcd60e51b815260206004820152601760248201527f7365744d696e7465723a20776169742d342d7965617273000000000000000000604482015290519081900360640190fd5b60095460408051637e51dad560e11b81526001600160a01b0384811660048301529151919092169163fca3b5aa91602480830192600092919082900301818387803b15801561095757600080fd5b505af115801561096b573d6000803e3d6000fd5b5050604080516001600160a01b038516815290517f726b590ef91a8c76ad05bbe91a57ef84605276528f49cd47d787f558a4e755b69350908190036020019150a150565b600083815260086020526040902054806109c857506006545b60006109d261042c565b9050828111156109df5750815b818111610a25576040805162461bcd60e51b815260206004820152600f60248201526e647269703a206261642d626c6f636b60881b604482015290519081900360640190fd5b60008581526008602052604080822083905560095481516340c10f1960e01b81526001600160a01b038a81166004830152868603898102602484018190529451909591909316926340c10f1992604480820193929182900301818387803b158015610a8f57600080fd5b505af1158015610aa3573d6000803e3d6000fd5b505050505050505050505050565b3390565b6001600160a01b038116610afa5760405162461bcd60e51b8152600401808060200182810382526026815260200180610b566026913960400191505060405180910390fd5b600080546040516001600160a01b03808516939216917f8be0079c531659141344cd1fd0a4f28419497f9722a3daafe3b4186f6b6457e091a3600080546001600160a01b0319166001600160a01b039290921691909117905556fe4f776e61626c653a206e6577206f776e657220697320746865207a65726f20616464726573734f776e61626c653a2063616c6c6572206973206e6f7420746865206f776e6572a265627a7a723158209934f02b94206384080195160edafdf2629c8326caa2c3d7b1262990ae4a505a64736f6c63430005100032",
  "source": "pragma solidity ^0.5.16;\n\n//import \"./BPRO.sol\";\nimport \"@openzeppelin/contracts/ownership/Ownable.sol\";\n\ncontract BPROLike {\n    function mint(address to, uint qty) external;\n    function setMinter(address newMinter) external;\n}\n\n// initially deployer owns it, and then it moves it to the DAO\ncontract BPROMinter is Ownable {\n    address public reservoir;\n    address public devPool;\n    address public userPool;\n    address public backstopPool;\n    address public genesisPool;\n\n    uint public deploymentBlock;\n    uint public deploymentTime;\n    mapping(bytes32 => uint) lastDripBlock;\n\n    BPROLike public bpro;\n\n    uint constant BLOCKS_PER_YEAR = 45 * 60 * 24 * 365 / 10; // 4.5 blocks per minute\n    uint constant BLOCKS_PER_MONTH = (BLOCKS_PER_YEAR / 12);\n\n    uint constant YEAR = 365 days;\n\n    event MinterSet(address newMinter);\n    event DevPoolSet(address newPool);\n    event BackstopPoolSet(address newPool);\n    event UserPoolSet(address newPool);\n    event ReservoirSet(address newPool);\n\n    constructor(BPROLike _bpro, address _reservoir, address _devPool, address _userPool, address _backstopPool) public {\n        reservoir = _reservoir;\n        devPool = _devPool;\n\n        userPool = _userPool;\n        backstopPool = _backstopPool;\n\n        deploymentBlock = getBlockNumber();\n        deploymentTime = now;\n\n        bpro = _bpro;\n\n        // this will be pre minted before ownership transfer\n        //bpro.mint(_genesisMakerPool, 500_000e18);\n        //bpro.mint(_genesisCompoundPool, 500_000e18);        \n    }\n\n    function dripReservoir() external {\n        drip(reservoir, \"reservoir\", 1_325_000e18 / BLOCKS_PER_YEAR, uint(-1));\n    }\n\n    function dripDev() external {\n        drip(devPool, \"devPool\", 825_000e18 / BLOCKS_PER_YEAR, uint(-1));\n    }\n\n    function dripUser() external {\n        uint dripPerMonth = 250_000e18 / uint(3);\n\n        drip(userPool, \"dripUser\", dripPerMonth / BLOCKS_PER_MONTH, deploymentBlock + BLOCKS_PER_MONTH * 3);\n    }\n\n    function dripBackstop() external {\n        drip(backstopPool, \"dripBackstop\", 150_000e18 / BLOCKS_PER_YEAR, deploymentBlock + BLOCKS_PER_YEAR);\n    }\n\n    function setMinter(address newMinter) external onlyOwner {\n        require(now > deploymentTime + 4 * YEAR, \"setMinter: wait-4-years\");\n        bpro.setMinter(newMinter);\n\n        emit MinterSet(newMinter);\n    }\n\n    function setDevPool(address newPool) external onlyOwner {\n        require(now > deploymentTime + YEAR, \"setDevPool: wait-1-years\");\n        devPool = newPool;\n\n        emit DevPoolSet(newPool);\n    }\n\n    function setBackstopPool(address newPool) external onlyOwner {\n        backstopPool = newPool;\n\n        emit BackstopPoolSet(newPool);\n    }\n\n    function setUserPool(address newPool) external onlyOwner {\n        userPool = newPool;\n\n        emit UserPoolSet(newPool);\n    }\n\n    function setReservoir(address newPool) external onlyOwner {\n        reservoir = newPool;\n\n        emit ReservoirSet(newPool);\n    }\n\n    function drip(address target, bytes32 targetName, uint dripRate, uint finalDripBlock) internal {\n        uint prevDripBlock = lastDripBlock[targetName];\n        if(prevDripBlock == 0) prevDripBlock = deploymentBlock;\n\n        uint currBlock = getBlockNumber();\n        if(currBlock > finalDripBlock) currBlock = finalDripBlock;\n\n        require(currBlock > prevDripBlock, \"drip: bad-block\");\n\n        uint deltaBlock = currBlock - prevDripBlock;\n        lastDripBlock[targetName] = currBlock;\n\n        uint mintAmount = deltaBlock * dripRate;\n        bpro.mint(target, mintAmount);\n    }\n\n    function getBlockNumber() public view returns(uint) {\n        return block.number;\n    }\n}\n\ncontract MockMiner is BPROMinter {\n    uint blockNumber;\n\n    constructor(BPROLike _bpro, address _reservoir, address _devPool, address _userPool, address _backstopPool) public \n        BPROMinter(_bpro,_reservoir,_devPool,_userPool,_backstopPool)\n    {\n        blockNumber = block.number;\n    }\n\n    function fwdBlockNumber(uint delta) public {\n        blockNumber += delta;\n    }\n\n    function getBlockNumber() public view returns(uint) {\n        if(blockNumber == 0) return block.number;\n\n        return blockNumber;\n    }\n}",
  "sourcePath": "/Users/afshanaman/Development/personal/blockchain/BPRO/contracts/minter.sol",
  "compiler": {
    "name": "solc",
    "version": "0.5.16+commit.9c3226ce.Emscripten.clang"
  },
  "schemaVersion": "3.3.4",
  "updatedAt": "2021-07-10T23:16:21.509Z",
  "devdoc": {
    "methods": {
      "isOwner()": {
        "details": "Returns true if the caller is the current owner."
      },
      "owner()": {
        "details": "Returns the address of the current owner."
      },
      "renounceOwnership()": {
        "details": "Leaves the contract without owner. It will not be possible to call `onlyOwner` functions anymore. Can only be called by the current owner.     * NOTE: Renouncing ownership will leave the contract without an owner, thereby removing any functionality that is only available to the owner."
      },
      "transferOwnership(address)": {
        "details": "Transfers ownership of the contract to a new account (`newOwner`). Can only be called by the current owner."
      }
    }
  },
  "userdoc": {
    "methods": {}
  }
}