{
  "contractName": "Vault",
  "abi": [
    {
      "inputs": [
        {
          "internalType": "address",
          "name": "owner",
          "type": "address"
        }
      ],
      "payable": false,
      "stateMutability": "nonpayable",
      "type": "constructor"
    },
    {
      "anonymous": false,
      "inputs": [
        {
          "indexed": true,
          "internalType": "address",
          "name": "previousOwner",
          "type": "address"
        },
        {
          "indexed": true,
          "internalType": "address",
          "name": "newOwner",
          "type": "address"
        }
      ],
      "name": "OwnershipTransferred",
      "type": "event"
    },
    {
      "payable": true,
      "stateMutability": "payable",
      "type": "fallback"
    },
    {
      "constant": true,
      "inputs": [],
      "name": "isOwner",
      "outputs": [
        {
          "internalType": "bool",
          "name": "",
          "type": "bool"
        }
      ],
      "payable": false,
      "stateMutability": "view",
      "type": "function"
    },
    {
      "constant": true,
      "inputs": [],
      "name": "owner",
      "outputs": [
        {
          "internalType": "address",
          "name": "",
          "type": "address"
        }
      ],
      "payable": false,
      "stateMutability": "view",
      "type": "function"
    },
    {
      "constant": false,
      "inputs": [],
      "name": "renounceOwnership",
      "outputs": [],
      "payable": false,
      "stateMutability": "nonpayable",
      "type": "function"
    },
    {
      "constant": false,
      "inputs": [
        {
          "internalType": "address",
          "name": "newOwner",
          "type": "address"
        }
      ],
      "name": "transferOwnership",
      "outputs": [],
      "payable": false,
      "stateMutability": "nonpayable",
      "type": "function"
    },
    {
      "constant": false,
      "inputs": [
        {
          "internalType": "address payable",
          "name": "target",
          "type": "address"
        },
        {
          "internalType": "bytes",
          "name": "data",
          "type": "bytes"
        },
        {
          "internalType": "uint256",
          "name": "ethValue",
          "type": "uint256"
        }
      ],
      "name": "op",
      "outputs": [],
      "payable": true,
      "stateMutability": "payable",
      "type": "function"
    }
  ],
  "bytecode": "0x608060405234801561001057600080fd5b506040516106903803806106908339818101604052602081101561003357600080fd5b505160006100486001600160e01b0361009816565b600080546001600160a01b0319166001600160a01b038316908117825560405192935091600080516020610670833981519152908290a350610092816001600160e01b0361009c16565b506101ce565b3390565b6100ad6001600160e01b0361011316565b6100fe576040805162461bcd60e51b815260206004820181905260248201527f4f776e61626c653a2063616c6c6572206973206e6f7420746865206f776e6572604482015290519081900360640190fd5b610110816001600160e01b0361014016565b50565b600080546001600160a01b03166101316001600160e01b0361009816565b6001600160a01b031614905090565b6001600160a01b0381166101855760405162461bcd60e51b815260040180806020018281038252602681526020018061064a6026913960400191505060405180910390fd5b600080546040516001600160a01b038085169392169160008051602061067083398151915291a3600080546001600160a01b0319166001600160a01b0392909216919091179055565b61046d806101dd6000396000f3fe60806040526004361061004a5760003560e01c8063558ef5f21461004c578063715018a6146100cc5780638da5cb5b146100e15780638f32d59b14610112578063f2fde38b1461013b575b005b61004a6004803603606081101561006257600080fd5b6001600160a01b03823516919081019060408101602082013564010000000081111561008d57600080fd5b82018360208201111561009f57600080fd5b803590602001918460018302840111640100000000831117156100c157600080fd5b91935091503561016e565b3480156100d857600080fd5b5061004a610233565b3480156100ed57600080fd5b506100f66102d6565b604080516001600160a01b039092168252519081900360200190f35b34801561011e57600080fd5b506101276102e5565b604080519115158252519081900360200190f35b34801561014757600080fd5b5061004a6004803603602081101561015e57600080fd5b50356001600160a01b0316610309565b6101766102e5565b6101c7576040805162461bcd60e51b815260206004820181905260248201527f4f776e61626c653a2063616c6c6572206973206e6f7420746865206f776e6572604482015290519081900360640190fd5b836001600160a01b0316818484604051808383808284376040519201945060009350909150508083038185875af1925050503d8060008114610225576040519150601f19603f3d011682016040523d82523d6000602084013e61022a565b606091505b50505050505050565b61023b6102e5565b61028c576040805162461bcd60e51b815260206004820181905260248201527f4f776e61626c653a2063616c6c6572206973206e6f7420746865206f776e6572604482015290519081900360640190fd5b600080546040516001600160a01b03909116907f8be0079c531659141344cd1fd0a4f28419497f9722a3daafe3b4186f6b6457e0908390a3600080546001600160a01b0319169055565b6000546001600160a01b031690565b600080546001600160a01b03166102fa61036e565b6001600160a01b031614905090565b6103116102e5565b610362576040805162461bcd60e51b815260206004820181905260248201527f4f776e61626c653a2063616c6c6572206973206e6f7420746865206f776e6572604482015290519081900360640190fd5b61036b81610372565b50565b3390565b6001600160a01b0381166103b75760405162461bcd60e51b81526004018080602001828103825260268152602001806104136026913960400191505060405180910390fd5b600080546040516001600160a01b03808516939216917f8be0079c531659141344cd1fd0a4f28419497f9722a3daafe3b4186f6b6457e091a3600080546001600160a01b0319166001600160a01b039290921691909117905556fe4f776e61626c653a206e6577206f776e657220697320746865207a65726f2061646472657373a265627a7a723158202e596ea8f627f3be9d705e2fff0d045ef6fccf27d3a862e1d92dba9f64d84fa164736f6c634300051000324f776e61626c653a206e6577206f776e657220697320746865207a65726f20616464726573738be0079c531659141344cd1fd0a4f28419497f9722a3daafe3b4186f6b6457e0",
  "source": "pragma solidity ^0.5.16;\n\nimport \"@openzeppelin/contracts/ownership/Ownable.sol\";\n\n// initially deployer owns it, and then it moves it to the DAO\ncontract Vault is Ownable {\n    constructor(address owner) public {\n        transferOwnership(owner);\n    }\n\n    function op(address payable target, bytes calldata data, uint ethValue) onlyOwner external payable {\n        target.call.value(ethValue)(data);\n    }\n    function() payable external {}\n}\n\n",
  "sourcePath": "/Users/afshanaman/Development/personal/blockchain/BPRO/contracts/Vault.sol",
  "compiler": {
    "name": "solc",
    "version": "0.5.16+commit.9c3226ce.Emscripten.clang"
  },
  "schemaVersion": "3.3.4",
  "updatedAt": "2021-07-10T23:16:21.475Z",
  "devdoc": {
    "methods": {
      "isOwner()": {
        "details": "Returns true if the caller is the current owner."
      },
      "owner()": {
        "details": "Returns the address of the current owner."
      },
      "renounceOwnership()": {
        "details": "Leaves the contract without owner. It will not be possible to call `onlyOwner` functions anymore. Can only be called by the current owner.     * NOTE: Renouncing ownership will leave the contract without an owner, thereby removing any functionality that is only available to the owner."
      },
      "transferOwnership(address)": {
        "details": "Transfers ownership of the contract to a new account (`newOwner`). Can only be called by the current owner."
      }
    }
  },
  "userdoc": {
    "methods": {}
  }
}